{
  "address": "0xcbcabb043DB6Cc25AbEA52B96bF7BE27546Bc303",
  "abi": [
    {
      "inputs": [
        {
          "internalType": "string",
          "name": "_name",
          "type": "string"
        },
        {
          "internalType": "string",
          "name": "_symbol",
          "type": "string"
        },
        {
          "internalType": "address",
          "name": "_lzEndpoint",
          "type": "address"
        },
        {
          "internalType": "address",
          "name": "_delegate",
          "type": "address"
        }
      ],
      "stateMutability": "nonpayable",
      "type": "constructor"
    },
    {
      "inputs": [
        {
          "internalType": "address",
          "name": "caller",
          "type": "address"
        }
      ],
      "name": "CallerNotMinter",
      "type": "error"
    },
    {
      "inputs": [],
      "name": "CheckpointUnorderedInsertion",
      "type": "error"
    },
    {
      "inputs": [],
      "name": "ECDSAInvalidSignature",
      "type": "error"
    },
    {
      "inputs": [
        {
          "internalType": "uint256",
          "name": "length",
          "type": "uint256"
        }
      ],
      "name": "ECDSAInvalidSignatureLength",
      "type": "error"
    },
    {
      "inputs": [
        {
          "internalType": "bytes32",
          "name": "s",
          "type": "bytes32"
        }
      ],
      "name": "ECDSAInvalidSignatureS",
      "type": "error"
    },
    {
      "inputs": [
        {
          "internalType": "uint256",
          "name": "increasedSupply",
          "type": "uint256"
        },
        {
          "internalType": "uint256",
          "name": "cap",
          "type": "uint256"
        }
      ],
      "name": "ERC20ExceededSafeSupply",
      "type": "error"
    },
    {
      "inputs": [
        {
          "internalType": "address",
          "name": "spender",
          "type": "address"
        },
        {
          "internalType": "uint256",
          "name": "allowance",
          "type": "uint256"
        },
        {
          "internalType": "uint256",
          "name": "needed",
          "type": "uint256"
        }
      ],
      "name": "ERC20InsufficientAllowance",
      "type": "error"
    },
    {
      "inputs": [
        {
          "internalType": "address",
          "name": "sender",
          "type": "address"
        },
        {
          "internalType": "uint256",
          "name": "balance",
          "type": "uint256"
        },
        {
          "internalType": "uint256",
          "name": "needed",
          "type": "uint256"
        }
      ],
      "name": "ERC20InsufficientBalance",
      "type": "error"
    },
    {
      "inputs": [
        {
          "internalType": "address",
          "name": "approver",
          "type": "address"
        }
      ],
      "name": "ERC20InvalidApprover",
      "type": "error"
    },
    {
      "inputs": [
        {
          "internalType": "address",
          "name": "receiver",
          "type": "address"
        }
      ],
      "name": "ERC20InvalidReceiver",
      "type": "error"
    },
    {
      "inputs": [
        {
          "internalType": "address",
          "name": "sender",
          "type": "address"
        }
      ],
      "name": "ERC20InvalidSender",
      "type": "error"
    },
    {
      "inputs": [
        {
          "internalType": "address",
          "name": "spender",
          "type": "address"
        }
      ],
      "name": "ERC20InvalidSpender",
      "type": "error"
    },
    {
      "inputs": [
        {
          "internalType": "uint256",
          "name": "deadline",
          "type": "uint256"
        }
      ],
      "name": "ERC2612ExpiredSignature",
      "type": "error"
    },
    {
      "inputs": [
        {
          "internalType": "address",
          "name": "signer",
          "type": "address"
        },
        {
          "internalType": "address",
          "name": "owner",
          "type": "address"
        }
      ],
      "name": "ERC2612InvalidSigner",
      "type": "error"
    },
    {
      "inputs": [
        {
          "internalType": "uint256",
          "name": "timepoint",
          "type": "uint256"
        },
        {
          "internalType": "uint48",
          "name": "clock",
          "type": "uint48"
        }
      ],
      "name": "ERC5805FutureLookup",
      "type": "error"
    },
    {
      "inputs": [],
      "name": "ERC6372InconsistentClock",
      "type": "error"
    },
    {
      "inputs": [
        {
          "internalType": "address",
          "name": "account",
          "type": "address"
        },
        {
          "internalType": "uint256",
          "name": "currentNonce",
          "type": "uint256"
        }
      ],
      "name": "InvalidAccountNonce",
      "type": "error"
    },
    {
      "inputs": [],
      "name": "InvalidDelegate",
      "type": "error"
    },
    {
      "inputs": [],
      "name": "InvalidEndpointCall",
      "type": "error"
    },
    {
      "inputs": [],
      "name": "InvalidLocalDecimals",
      "type": "error"
    },
    {
      "inputs": [],
      "name": "InvalidMinterZeroAddress",
      "type": "error"
    },
    {
      "inputs": [
        {
          "internalType": "bytes",
          "name": "options",
          "type": "bytes"
        }
      ],
      "name": "InvalidOptions",
      "type": "error"
    },
    {
      "inputs": [],
      "name": "InvalidShortString",
      "type": "error"
    },
    {
      "inputs": [],
      "name": "LzTokenUnavailable",
      "type": "error"
    },
    {
      "inputs": [
        {
          "internalType": "uint32",
          "name": "eid",
          "type": "uint32"
        }
      ],
      "name": "NoPeer",
      "type": "error"
    },
    {
      "inputs": [
        {
          "internalType": "uint256",
          "name": "msgValue",
          "type": "uint256"
        }
      ],
      "name": "NotEnoughNative",
      "type": "error"
    },
    {
      "inputs": [
        {
          "internalType": "address",
          "name": "addr",
          "type": "address"
        }
      ],
      "name": "OnlyEndpoint",
      "type": "error"
    },
    {
      "inputs": [
        {
          "internalType": "uint32",
          "name": "eid",
          "type": "uint32"
        },
        {
          "internalType": "bytes32",
          "name": "sender",
          "type": "bytes32"
        }
      ],
      "name": "OnlyPeer",
      "type": "error"
    },
    {
      "inputs": [],
      "name": "OnlySelf",
      "type": "error"
    },
    {
      "inputs": [
        {
          "internalType": "address",
          "name": "owner",
          "type": "address"
        }
      ],
      "name": "OwnableInvalidOwner",
      "type": "error"
    },
    {
      "inputs": [
        {
          "internalType": "address",
          "name": "account",
          "type": "address"
        }
      ],
      "name": "OwnableUnauthorizedAccount",
      "type": "error"
    },
    {
      "inputs": [
        {
          "internalType": "uint8",
          "name": "bits",
          "type": "uint8"
        },
        {
          "internalType": "uint256",
          "name": "value",
          "type": "uint256"
        }
      ],
      "name": "SafeCastOverflowedUintDowncast",
      "type": "error"
    },
    {
      "inputs": [
        {
          "internalType": "address",
          "name": "token",
          "type": "address"
        }
      ],
      "name": "SafeERC20FailedOperation",
      "type": "error"
    },
    {
      "inputs": [
        {
          "internalType": "bytes",
          "name": "result",
          "type": "bytes"
        }
      ],
      "name": "SimulationResult",
      "type": "error"
    },
    {
      "inputs": [
        {
          "internalType": "uint256",
          "name": "amountLD",
          "type": "uint256"
        },
        {
          "internalType": "uint256",
          "name": "minAmountLD",
          "type": "uint256"
        }
      ],
      "name": "SlippageExceeded",
      "type": "error"
    },
    {
      "inputs": [
        {
          "internalType": "string",
          "name": "str",
          "type": "string"
        }
      ],
      "name": "StringTooLong",
      "type": "error"
    },
    {
      "inputs": [
        {
          "internalType": "uint256",
          "name": "expiry",
          "type": "uint256"
        }
      ],
      "name": "VotesExpiredSignature",
      "type": "error"
    },
    {
      "anonymous": false,
      "inputs": [
        {
          "indexed": true,
          "internalType": "address",
          "name": "owner",
          "type": "address"
        },
        {
          "indexed": true,
          "internalType": "address",
          "name": "spender",
          "type": "address"
        },
        {
          "indexed": false,
          "internalType": "uint256",
          "name": "value",
          "type": "uint256"
        }
      ],
      "name": "Approval",
      "type": "event"
    },
    {
      "anonymous": false,
      "inputs": [
        {
          "indexed": true,
          "internalType": "address",
          "name": "delegator",
          "type": "address"
        },
        {
          "indexed": true,
          "internalType": "address",
          "name": "fromDelegate",
          "type": "address"
        },
        {
          "indexed": true,
          "internalType": "address",
          "name": "toDelegate",
          "type": "address"
        }
      ],
      "name": "DelegateChanged",
      "type": "event"
    },
    {
      "anonymous": false,
      "inputs": [
        {
          "indexed": true,
          "internalType": "address",
          "name": "delegate",
          "type": "address"
        },
        {
          "indexed": false,
          "internalType": "uint256",
          "name": "previousVotes",
          "type": "uint256"
        },
        {
          "indexed": false,
          "internalType": "uint256",
          "name": "newVotes",
          "type": "uint256"
        }
      ],
      "name": "DelegateVotesChanged",
      "type": "event"
    },
    {
      "anonymous": false,
      "inputs": [],
      "name": "EIP712DomainChanged",
      "type": "event"
    },
    {
      "anonymous": false,
      "inputs": [
        {
          "components": [
            {
              "internalType": "uint32",
              "name": "eid",
              "type": "uint32"
            },
            {
              "internalType": "uint16",
              "name": "msgType",
              "type": "uint16"
            },
            {
              "internalType": "bytes",
              "name": "options",
              "type": "bytes"
            }
          ],
          "indexed": false,
          "internalType": "struct EnforcedOptionParam[]",
          "name": "_enforcedOptions",
          "type": "tuple[]"
        }
      ],
      "name": "EnforcedOptionSet",
      "type": "event"
    },
    {
      "anonymous": false,
      "inputs": [
        {
          "indexed": false,
          "internalType": "address",
          "name": "inspector",
          "type": "address"
        }
      ],
      "name": "MsgInspectorSet",
      "type": "event"
    },
    {
      "anonymous": false,
      "inputs": [
        {
          "indexed": false,
          "internalType": "address",
          "name": "newMinter",
          "type": "address"
        }
      ],
      "name": "NewMinter",
      "type": "event"
    },
    {
      "anonymous": false,
      "inputs": [
        {
          "indexed": true,
          "internalType": "bytes32",
          "name": "guid",
          "type": "bytes32"
        },
        {
          "indexed": false,
          "internalType": "uint32",
          "name": "srcEid",
          "type": "uint32"
        },
        {
          "indexed": true,
          "internalType": "address",
          "name": "toAddress",
          "type": "address"
        },
        {
          "indexed": false,
          "internalType": "uint256",
          "name": "amountReceivedLD",
          "type": "uint256"
        }
      ],
      "name": "OFTReceived",
      "type": "event"
    },
    {
      "anonymous": false,
      "inputs": [
        {
          "indexed": true,
          "internalType": "bytes32",
          "name": "guid",
          "type": "bytes32"
        },
        {
          "indexed": false,
          "internalType": "uint32",
          "name": "dstEid",
          "type": "uint32"
        },
        {
          "indexed": true,
          "internalType": "address",
          "name": "fromAddress",
          "type": "address"
        },
        {
          "indexed": false,
          "internalType": "uint256",
          "name": "amountSentLD",
          "type": "uint256"
        },
        {
          "indexed": false,
          "internalType": "uint256",
          "name": "amountReceivedLD",
          "type": "uint256"
        }
      ],
      "name": "OFTSent",
      "type": "event"
    },
    {
      "anonymous": false,
      "inputs": [
        {
          "indexed": true,
          "internalType": "address",
          "name": "previousOwner",
          "type": "address"
        },
        {
          "indexed": true,
          "internalType": "address",
          "name": "newOwner",
          "type": "address"
        }
      ],
      "name": "OwnershipTransferred",
      "type": "event"
    },
    {
      "anonymous": false,
      "inputs": [
        {
          "indexed": false,
          "internalType": "uint32",
          "name": "eid",
          "type": "uint32"
        },
        {
          "indexed": false,
          "internalType": "bytes32",
          "name": "peer",
          "type": "bytes32"
        }
      ],
      "name": "PeerSet",
      "type": "event"
    },
    {
      "anonymous": false,
      "inputs": [
        {
          "indexed": false,
          "internalType": "address",
          "name": "preCrimeAddress",
          "type": "address"
        }
      ],
      "name": "PreCrimeSet",
      "type": "event"
    },
    {
      "anonymous": false,
      "inputs": [
        {
          "indexed": true,
          "internalType": "address",
          "name": "from",
          "type": "address"
        },
        {
          "indexed": true,
          "internalType": "address",
          "name": "to",
          "type": "address"
        },
        {
          "indexed": false,
          "internalType": "uint256",
          "name": "value",
          "type": "uint256"
        }
      ],
      "name": "Transfer",
      "type": "event"
    },
    {
      "inputs": [],
      "name": "CLOCK_MODE",
      "outputs": [
        {
          "internalType": "string",
          "name": "",
          "type": "string"
        }
      ],
      "stateMutability": "view",
      "type": "function"
    },
    {
      "inputs": [],
      "name": "DOMAIN_SEPARATOR",
      "outputs": [
        {
          "internalType": "bytes32",
          "name": "",
          "type": "bytes32"
        }
      ],
      "stateMutability": "view",
      "type": "function"
    },
    {
      "inputs": [],
      "name": "MAX_SUPPLY",
      "outputs": [
        {
          "internalType": "uint256",
          "name": "",
          "type": "uint256"
        }
      ],
      "stateMutability": "view",
      "type": "function"
    },
    {
      "inputs": [],
      "name": "SEND",
      "outputs": [
        {
          "internalType": "uint16",
          "name": "",
          "type": "uint16"
        }
      ],
      "stateMutability": "view",
      "type": "function"
    },
    {
      "inputs": [],
      "name": "SEND_AND_CALL",
      "outputs": [
        {
          "internalType": "uint16",
          "name": "",
          "type": "uint16"
        }
      ],
      "stateMutability": "view",
      "type": "function"
    },
    {
      "inputs": [
        {
          "components": [
            {
              "internalType": "uint32",
              "name": "srcEid",
              "type": "uint32"
            },
            {
              "internalType": "bytes32",
              "name": "sender",
              "type": "bytes32"
            },
            {
              "internalType": "uint64",
              "name": "nonce",
              "type": "uint64"
            }
          ],
          "internalType": "struct Origin",
          "name": "origin",
          "type": "tuple"
        }
      ],
      "name": "allowInitializePath",
      "outputs": [
        {
          "internalType": "bool",
          "name": "",
          "type": "bool"
        }
      ],
      "stateMutability": "view",
      "type": "function"
    },
    {
      "inputs": [
        {
          "internalType": "address",
          "name": "owner",
          "type": "address"
        },
        {
          "internalType": "address",
          "name": "spender",
          "type": "address"
        }
      ],
      "name": "allowance",
      "outputs": [
        {
          "internalType": "uint256",
          "name": "",
          "type": "uint256"
        }
      ],
      "stateMutability": "view",
      "type": "function"
    },
    {
      "inputs": [],
      "name": "approvalRequired",
      "outputs": [
        {
          "internalType": "bool",
          "name": "",
          "type": "bool"
        }
      ],
      "stateMutability": "pure",
      "type": "function"
    },
    {
      "inputs": [
        {
          "internalType": "address",
          "name": "spender",
          "type": "address"
        },
        {
          "internalType": "uint256",
          "name": "value",
          "type": "uint256"
        }
      ],
      "name": "approve",
      "outputs": [
        {
          "internalType": "bool",
          "name": "",
          "type": "bool"
        }
      ],
      "stateMutability": "nonpayable",
      "type": "function"
    },
    {
      "inputs": [
        {
          "internalType": "address",
          "name": "account",
          "type": "address"
        }
      ],
      "name": "balanceOf",
      "outputs": [
        {
          "internalType": "uint256",
          "name": "",
          "type": "uint256"
        }
      ],
      "stateMutability": "view",
      "type": "function"
    },
    {
      "inputs": [
        {
          "internalType": "uint256",
          "name": "value",
          "type": "uint256"
        }
      ],
      "name": "burn",
      "outputs": [],
      "stateMutability": "nonpayable",
      "type": "function"
    },
    {
      "inputs": [
        {
          "internalType": "address",
          "name": "account",
          "type": "address"
        },
        {
          "internalType": "uint256",
          "name": "value",
          "type": "uint256"
        }
      ],
      "name": "burnFrom",
      "outputs": [],
      "stateMutability": "nonpayable",
      "type": "function"
    },
    {
      "inputs": [
        {
          "internalType": "address",
          "name": "account",
          "type": "address"
        },
        {
          "internalType": "uint32",
          "name": "pos",
          "type": "uint32"
        }
      ],
      "name": "checkpoints",
      "outputs": [
        {
          "components": [
            {
              "internalType": "uint48",
              "name": "_key",
              "type": "uint48"
            },
            {
              "internalType": "uint208",
              "name": "_value",
              "type": "uint208"
            }
          ],
          "internalType": "struct Checkpoints.Checkpoint208",
          "name": "",
          "type": "tuple"
        }
      ],
      "stateMutability": "view",
      "type": "function"
    },
    {
      "inputs": [],
      "name": "clock",
      "outputs": [
        {
          "internalType": "uint48",
          "name": "",
          "type": "uint48"
        }
      ],
      "stateMutability": "view",
      "type": "function"
    },
    {
      "inputs": [
        {
          "internalType": "uint32",
          "name": "_eid",
          "type": "uint32"
        },
        {
          "internalType": "uint16",
          "name": "_msgType",
          "type": "uint16"
        },
        {
          "internalType": "bytes",
          "name": "_extraOptions",
          "type": "bytes"
        }
      ],
      "name": "combineOptions",
      "outputs": [
        {
          "internalType": "bytes",
          "name": "",
          "type": "bytes"
        }
      ],
      "stateMutability": "view",
      "type": "function"
    },
    {
      "inputs": [],
      "name": "decimalConversionRate",
      "outputs": [
        {
          "internalType": "uint256",
          "name": "",
          "type": "uint256"
        }
      ],
      "stateMutability": "view",
      "type": "function"
    },
    {
      "inputs": [],
      "name": "decimals",
      "outputs": [
        {
          "internalType": "uint8",
          "name": "",
          "type": "uint8"
        }
      ],
      "stateMutability": "view",
      "type": "function"
    },
    {
      "inputs": [
        {
          "internalType": "address",
          "name": "delegatee",
          "type": "address"
        }
      ],
      "name": "delegate",
      "outputs": [],
      "stateMutability": "nonpayable",
      "type": "function"
    },
    {
      "inputs": [
        {
          "internalType": "address",
          "name": "delegatee",
          "type": "address"
        },
        {
          "internalType": "uint256",
          "name": "nonce",
          "type": "uint256"
        },
        {
          "internalType": "uint256",
          "name": "expiry",
          "type": "uint256"
        },
        {
          "internalType": "uint8",
          "name": "v",
          "type": "uint8"
        },
        {
          "internalType": "bytes32",
          "name": "r",
          "type": "bytes32"
        },
        {
          "internalType": "bytes32",
          "name": "s",
          "type": "bytes32"
        }
      ],
      "name": "delegateBySig",
      "outputs": [],
      "stateMutability": "nonpayable",
      "type": "function"
    },
    {
      "inputs": [
        {
          "internalType": "address",
          "name": "account",
          "type": "address"
        }
      ],
      "name": "delegates",
      "outputs": [
        {
          "internalType": "address",
          "name": "",
          "type": "address"
        }
      ],
      "stateMutability": "view",
      "type": "function"
    },
    {
      "inputs": [
        {
          "internalType": "address",
          "name": "prevMinter",
          "type": "address"
        }
      ],
      "name": "deleteMinter",
      "outputs": [],
      "stateMutability": "nonpayable",
      "type": "function"
    },
    {
      "inputs": [],
      "name": "eip712Domain",
      "outputs": [
        {
          "internalType": "bytes1",
          "name": "fields",
          "type": "bytes1"
        },
        {
          "internalType": "string",
          "name": "name",
          "type": "string"
        },
        {
          "internalType": "string",
          "name": "version",
          "type": "string"
        },
        {
          "internalType": "uint256",
          "name": "chainId",
          "type": "uint256"
        },
        {
          "internalType": "address",
          "name": "verifyingContract",
          "type": "address"
        },
        {
          "internalType": "bytes32",
          "name": "salt",
          "type": "bytes32"
        },
        {
          "internalType": "uint256[]",
          "name": "extensions",
          "type": "uint256[]"
        }
      ],
      "stateMutability": "view",
      "type": "function"
    },
    {
      "inputs": [],
      "name": "endpoint",
      "outputs": [
        {
          "internalType": "contract ILayerZeroEndpointV2",
          "name": "",
          "type": "address"
        }
      ],
      "stateMutability": "view",
      "type": "function"
    },
    {
      "inputs": [
        {
          "internalType": "uint32",
          "name": "eid",
          "type": "uint32"
        },
        {
          "internalType": "uint16",
          "name": "msgType",
          "type": "uint16"
        }
      ],
      "name": "enforcedOptions",
      "outputs": [
        {
          "internalType": "bytes",
          "name": "enforcedOption",
          "type": "bytes"
        }
      ],
      "stateMutability": "view",
      "type": "function"
    },
    {
      "inputs": [
        {
          "internalType": "uint256",
          "name": "timepoint",
          "type": "uint256"
        }
      ],
      "name": "getPastTotalSupply",
      "outputs": [
        {
          "internalType": "uint256",
          "name": "",
          "type": "uint256"
        }
      ],
      "stateMutability": "view",
      "type": "function"
    },
    {
      "inputs": [
        {
          "internalType": "address",
          "name": "account",
          "type": "address"
        },
        {
          "internalType": "uint256",
          "name": "timepoint",
          "type": "uint256"
        }
      ],
      "name": "getPastVotes",
      "outputs": [
        {
          "internalType": "uint256",
          "name": "",
          "type": "uint256"
        }
      ],
      "stateMutability": "view",
      "type": "function"
    },
    {
      "inputs": [
        {
          "internalType": "address",
          "name": "account",
          "type": "address"
        }
      ],
      "name": "getVotes",
      "outputs": [
        {
          "internalType": "uint256",
          "name": "",
          "type": "uint256"
        }
      ],
      "stateMutability": "view",
      "type": "function"
    },
    {
      "inputs": [
        {
          "components": [
            {
              "internalType": "uint32",
              "name": "srcEid",
              "type": "uint32"
            },
            {
              "internalType": "bytes32",
              "name": "sender",
              "type": "bytes32"
            },
            {
              "internalType": "uint64",
              "name": "nonce",
              "type": "uint64"
            }
          ],
          "internalType": "struct Origin",
          "name": "",
          "type": "tuple"
        },
        {
          "internalType": "bytes",
          "name": "",
          "type": "bytes"
        },
        {
          "internalType": "address",
          "name": "_sender",
          "type": "address"
        }
      ],
      "name": "isComposeMsgSender",
      "outputs": [
        {
          "internalType": "bool",
          "name": "",
          "type": "bool"
        }
      ],
      "stateMutability": "view",
      "type": "function"
    },
    {
      "inputs": [
        {
          "internalType": "address",
          "name": "",
          "type": "address"
        }
      ],
      "name": "isMinter",
      "outputs": [
        {
          "internalType": "bool",
          "name": "",
          "type": "bool"
        }
      ],
      "stateMutability": "view",
      "type": "function"
    },
    {
      "inputs": [
        {
          "internalType": "uint32",
          "name": "_eid",
          "type": "uint32"
        },
        {
          "internalType": "bytes32",
          "name": "_peer",
          "type": "bytes32"
        }
      ],
      "name": "isPeer",
      "outputs": [
        {
          "internalType": "bool",
          "name": "",
          "type": "bool"
        }
      ],
      "stateMutability": "view",
      "type": "function"
    },
    {
      "inputs": [
        {
          "components": [
            {
              "internalType": "uint32",
              "name": "srcEid",
              "type": "uint32"
            },
            {
              "internalType": "bytes32",
              "name": "sender",
              "type": "bytes32"
            },
            {
              "internalType": "uint64",
              "name": "nonce",
              "type": "uint64"
            }
          ],
          "internalType": "struct Origin",
          "name": "_origin",
          "type": "tuple"
        },
        {
          "internalType": "bytes32",
          "name": "_guid",
          "type": "bytes32"
        },
        {
          "internalType": "bytes",
          "name": "_message",
          "type": "bytes"
        },
        {
          "internalType": "address",
          "name": "_executor",
          "type": "address"
        },
        {
          "internalType": "bytes",
          "name": "_extraData",
          "type": "bytes"
        }
      ],
      "name": "lzReceive",
      "outputs": [],
      "stateMutability": "payable",
      "type": "function"
    },
    {
      "inputs": [
        {
          "components": [
            {
              "components": [
                {
                  "internalType": "uint32",
                  "name": "srcEid",
                  "type": "uint32"
                },
                {
                  "internalType": "bytes32",
                  "name": "sender",
                  "type": "bytes32"
                },
                {
                  "internalType": "uint64",
                  "name": "nonce",
                  "type": "uint64"
                }
              ],
              "internalType": "struct Origin",
              "name": "origin",
              "type": "tuple"
            },
            {
              "internalType": "uint32",
              "name": "dstEid",
              "type": "uint32"
            },
            {
              "internalType": "address",
              "name": "receiver",
              "type": "address"
            },
            {
              "internalType": "bytes32",
              "name": "guid",
              "type": "bytes32"
            },
            {
              "internalType": "uint256",
              "name": "value",
              "type": "uint256"
            },
            {
              "internalType": "address",
              "name": "executor",
              "type": "address"
            },
            {
              "internalType": "bytes",
              "name": "message",
              "type": "bytes"
            },
            {
              "internalType": "bytes",
              "name": "extraData",
              "type": "bytes"
            }
          ],
          "internalType": "struct InboundPacket[]",
          "name": "_packets",
          "type": "tuple[]"
        }
      ],
      "name": "lzReceiveAndRevert",
      "outputs": [],
      "stateMutability": "payable",
      "type": "function"
    },
    {
      "inputs": [
        {
          "components": [
            {
              "internalType": "uint32",
              "name": "srcEid",
              "type": "uint32"
            },
            {
              "internalType": "bytes32",
              "name": "sender",
              "type": "bytes32"
            },
            {
              "internalType": "uint64",
              "name": "nonce",
              "type": "uint64"
            }
          ],
          "internalType": "struct Origin",
          "name": "_origin",
          "type": "tuple"
        },
        {
          "internalType": "bytes32",
          "name": "_guid",
          "type": "bytes32"
        },
        {
          "internalType": "bytes",
          "name": "_message",
          "type": "bytes"
        },
        {
          "internalType": "address",
          "name": "_executor",
          "type": "address"
        },
        {
          "internalType": "bytes",
          "name": "_extraData",
          "type": "bytes"
        }
      ],
      "name": "lzReceiveSimulate",
      "outputs": [],
      "stateMutability": "payable",
      "type": "function"
    },
    {
      "inputs": [
        {
          "internalType": "address",
          "name": "_account",
          "type": "address"
        },
        {
          "internalType": "uint256",
          "name": "_amount",
          "type": "uint256"
        }
      ],
      "name": "mint",
      "outputs": [],
      "stateMutability": "nonpayable",
      "type": "function"
    },
    {
      "inputs": [],
      "name": "minter",
      "outputs": [
        {
          "internalType": "address",
          "name": "",
          "type": "address"
        }
      ],
      "stateMutability": "view",
      "type": "function"
    },
    {
      "inputs": [],
      "name": "msgInspector",
      "outputs": [
        {
          "internalType": "address",
          "name": "",
          "type": "address"
        }
      ],
      "stateMutability": "view",
      "type": "function"
    },
    {
      "inputs": [],
      "name": "name",
      "outputs": [
        {
          "internalType": "string",
          "name": "",
          "type": "string"
        }
      ],
      "stateMutability": "view",
      "type": "function"
    },
    {
      "inputs": [
        {
          "internalType": "uint32",
          "name": "",
          "type": "uint32"
        },
        {
          "internalType": "bytes32",
          "name": "",
          "type": "bytes32"
        }
      ],
      "name": "nextNonce",
      "outputs": [
        {
          "internalType": "uint64",
          "name": "nonce",
          "type": "uint64"
        }
      ],
      "stateMutability": "view",
      "type": "function"
    },
    {
      "inputs": [
        {
          "internalType": "address",
          "name": "_owner",
          "type": "address"
        }
      ],
      "name": "nonces",
      "outputs": [
        {
          "internalType": "uint256",
          "name": "",
          "type": "uint256"
        }
      ],
      "stateMutability": "view",
      "type": "function"
    },
    {
      "inputs": [
        {
          "internalType": "address",
          "name": "account",
          "type": "address"
        }
      ],
      "name": "numCheckpoints",
      "outputs": [
        {
          "internalType": "uint32",
          "name": "",
          "type": "uint32"
        }
      ],
      "stateMutability": "view",
      "type": "function"
    },
    {
      "inputs": [],
      "name": "oApp",
      "outputs": [
        {
          "internalType": "address",
          "name": "",
          "type": "address"
        }
      ],
      "stateMutability": "view",
      "type": "function"
    },
    {
      "inputs": [],
      "name": "oAppVersion",
      "outputs": [
        {
          "internalType": "uint64",
          "name": "senderVersion",
          "type": "uint64"
        },
        {
          "internalType": "uint64",
          "name": "receiverVersion",
          "type": "uint64"
        }
      ],
      "stateMutability": "pure",
      "type": "function"
    },
    {
      "inputs": [],
      "name": "oftVersion",
      "outputs": [
        {
          "internalType": "bytes4",
          "name": "interfaceId",
          "type": "bytes4"
        },
        {
          "internalType": "uint64",
          "name": "version",
          "type": "uint64"
        }
      ],
      "stateMutability": "pure",
      "type": "function"
    },
    {
      "inputs": [],
      "name": "owner",
      "outputs": [
        {
          "internalType": "address",
          "name": "",
          "type": "address"
        }
      ],
      "stateMutability": "view",
      "type": "function"
    },
    {
      "inputs": [
        {
          "internalType": "uint32",
          "name": "eid",
          "type": "uint32"
        }
      ],
      "name": "peers",
      "outputs": [
        {
          "internalType": "bytes32",
          "name": "peer",
          "type": "bytes32"
        }
      ],
      "stateMutability": "view",
      "type": "function"
    },
    {
      "inputs": [
        {
          "internalType": "address",
          "name": "owner",
          "type": "address"
        },
        {
          "internalType": "address",
          "name": "spender",
          "type": "address"
        },
        {
          "internalType": "uint256",
          "name": "value",
          "type": "uint256"
        },
        {
          "internalType": "uint256",
          "name": "deadline",
          "type": "uint256"
        },
        {
          "internalType": "uint8",
          "name": "v",
          "type": "uint8"
        },
        {
          "internalType": "bytes32",
          "name": "r",
          "type": "bytes32"
        },
        {
          "internalType": "bytes32",
          "name": "s",
          "type": "bytes32"
        }
      ],
      "name": "permit",
      "outputs": [],
      "stateMutability": "nonpayable",
      "type": "function"
    },
    {
      "inputs": [],
      "name": "preCrime",
      "outputs": [
        {
          "internalType": "address",
          "name": "",
          "type": "address"
        }
      ],
      "stateMutability": "view",
      "type": "function"
    },
    {
      "inputs": [
        {
          "components": [
            {
              "internalType": "uint32",
              "name": "dstEid",
              "type": "uint32"
            },
            {
              "internalType": "bytes32",
              "name": "to",
              "type": "bytes32"
            },
            {
              "internalType": "uint256",
              "name": "amountLD",
              "type": "uint256"
            },
            {
              "internalType": "uint256",
              "name": "minAmountLD",
              "type": "uint256"
            },
            {
              "internalType": "bytes",
              "name": "extraOptions",
              "type": "bytes"
            },
            {
              "internalType": "bytes",
              "name": "composeMsg",
              "type": "bytes"
            },
            {
              "internalType": "bytes",
              "name": "oftCmd",
              "type": "bytes"
            }
          ],
          "internalType": "struct SendParam",
          "name": "_sendParam",
          "type": "tuple"
        }
      ],
      "name": "quoteOFT",
      "outputs": [
        {
          "components": [
            {
              "internalType": "uint256",
              "name": "minAmountLD",
              "type": "uint256"
            },
            {
              "internalType": "uint256",
              "name": "maxAmountLD",
              "type": "uint256"
            }
          ],
          "internalType": "struct OFTLimit",
          "name": "oftLimit",
          "type": "tuple"
        },
        {
          "components": [
            {
              "internalType": "int256",
              "name": "feeAmountLD",
              "type": "int256"
            },
            {
              "internalType": "string",
              "name": "description",
              "type": "string"
            }
          ],
          "internalType": "struct OFTFeeDetail[]",
          "name": "oftFeeDetails",
          "type": "tuple[]"
        },
        {
          "components": [
            {
              "internalType": "uint256",
              "name": "amountSentLD",
              "type": "uint256"
            },
            {
              "internalType": "uint256",
              "name": "amountReceivedLD",
              "type": "uint256"
            }
          ],
          "internalType": "struct OFTReceipt",
          "name": "oftReceipt",
          "type": "tuple"
        }
      ],
      "stateMutability": "view",
      "type": "function"
    },
    {
      "inputs": [
        {
          "components": [
            {
              "internalType": "uint32",
              "name": "dstEid",
              "type": "uint32"
            },
            {
              "internalType": "bytes32",
              "name": "to",
              "type": "bytes32"
            },
            {
              "internalType": "uint256",
              "name": "amountLD",
              "type": "uint256"
            },
            {
              "internalType": "uint256",
              "name": "minAmountLD",
              "type": "uint256"
            },
            {
              "internalType": "bytes",
              "name": "extraOptions",
              "type": "bytes"
            },
            {
              "internalType": "bytes",
              "name": "composeMsg",
              "type": "bytes"
            },
            {
              "internalType": "bytes",
              "name": "oftCmd",
              "type": "bytes"
            }
          ],
          "internalType": "struct SendParam",
          "name": "_sendParam",
          "type": "tuple"
        },
        {
          "internalType": "bool",
          "name": "_payInLzToken",
          "type": "bool"
        }
      ],
      "name": "quoteSend",
      "outputs": [
        {
          "components": [
            {
              "internalType": "uint256",
              "name": "nativeFee",
              "type": "uint256"
            },
            {
              "internalType": "uint256",
              "name": "lzTokenFee",
              "type": "uint256"
            }
          ],
          "internalType": "struct MessagingFee",
          "name": "msgFee",
          "type": "tuple"
        }
      ],
      "stateMutability": "view",
      "type": "function"
    },
    {
      "inputs": [],
      "name": "renounceOwnership",
      "outputs": [],
      "stateMutability": "nonpayable",
      "type": "function"
    },
    {
      "inputs": [
        {
          "components": [
            {
              "internalType": "uint32",
              "name": "dstEid",
              "type": "uint32"
            },
            {
              "internalType": "bytes32",
              "name": "to",
              "type": "bytes32"
            },
            {
              "internalType": "uint256",
              "name": "amountLD",
              "type": "uint256"
            },
            {
              "internalType": "uint256",
              "name": "minAmountLD",
              "type": "uint256"
            },
            {
              "internalType": "bytes",
              "name": "extraOptions",
              "type": "bytes"
            },
            {
              "internalType": "bytes",
              "name": "composeMsg",
              "type": "bytes"
            },
            {
              "internalType": "bytes",
              "name": "oftCmd",
              "type": "bytes"
            }
          ],
          "internalType": "struct SendParam",
          "name": "_sendParam",
          "type": "tuple"
        },
        {
          "components": [
            {
              "internalType": "uint256",
              "name": "nativeFee",
              "type": "uint256"
            },
            {
              "internalType": "uint256",
              "name": "lzTokenFee",
              "type": "uint256"
            }
          ],
          "internalType": "struct MessagingFee",
          "name": "_fee",
          "type": "tuple"
        },
        {
          "internalType": "address",
          "name": "_refundAddress",
          "type": "address"
        }
      ],
      "name": "send",
      "outputs": [
        {
          "components": [
            {
              "internalType": "bytes32",
              "name": "guid",
              "type": "bytes32"
            },
            {
              "internalType": "uint64",
              "name": "nonce",
              "type": "uint64"
            },
            {
              "components": [
                {
                  "internalType": "uint256",
                  "name": "nativeFee",
                  "type": "uint256"
                },
                {
                  "internalType": "uint256",
                  "name": "lzTokenFee",
                  "type": "uint256"
                }
              ],
              "internalType": "struct MessagingFee",
              "name": "fee",
              "type": "tuple"
            }
          ],
          "internalType": "struct MessagingReceipt",
          "name": "msgReceipt",
          "type": "tuple"
        },
        {
          "components": [
            {
              "internalType": "uint256",
              "name": "amountSentLD",
              "type": "uint256"
            },
            {
              "internalType": "uint256",
              "name": "amountReceivedLD",
              "type": "uint256"
            }
          ],
          "internalType": "struct OFTReceipt",
          "name": "oftReceipt",
          "type": "tuple"
        }
      ],
      "stateMutability": "payable",
      "type": "function"
    },
    {
      "inputs": [
        {
          "internalType": "address",
          "name": "_delegate",
          "type": "address"
        }
      ],
      "name": "setDelegate",
      "outputs": [],
      "stateMutability": "nonpayable",
      "type": "function"
    },
    {
      "inputs": [
        {
          "components": [
            {
              "internalType": "uint32",
              "name": "eid",
              "type": "uint32"
            },
            {
              "internalType": "uint16",
              "name": "msgType",
              "type": "uint16"
            },
            {
              "internalType": "bytes",
              "name": "options",
              "type": "bytes"
            }
          ],
          "internalType": "struct EnforcedOptionParam[]",
          "name": "_enforcedOptions",
          "type": "tuple[]"
        }
      ],
      "name": "setEnforcedOptions",
      "outputs": [],
      "stateMutability": "nonpayable",
      "type": "function"
    },
    {
      "inputs": [
        {
          "internalType": "address",
          "name": "newMinter",
          "type": "address"
        }
      ],
      "name": "setMinter",
      "outputs": [],
      "stateMutability": "nonpayable",
      "type": "function"
    },
    {
      "inputs": [
        {
          "internalType": "address",
          "name": "_msgInspector",
          "type": "address"
        }
      ],
      "name": "setMsgInspector",
      "outputs": [],
      "stateMutability": "nonpayable",
      "type": "function"
    },
    {
      "inputs": [
        {
          "internalType": "uint32",
          "name": "_eid",
          "type": "uint32"
        },
        {
          "internalType": "bytes32",
          "name": "_peer",
          "type": "bytes32"
        }
      ],
      "name": "setPeer",
      "outputs": [],
      "stateMutability": "nonpayable",
      "type": "function"
    },
    {
      "inputs": [
        {
          "internalType": "address",
          "name": "_preCrime",
          "type": "address"
        }
      ],
      "name": "setPreCrime",
      "outputs": [],
      "stateMutability": "nonpayable",
      "type": "function"
    },
    {
      "inputs": [],
      "name": "sharedDecimals",
      "outputs": [
        {
          "internalType": "uint8",
          "name": "",
          "type": "uint8"
        }
      ],
      "stateMutability": "view",
      "type": "function"
    },
    {
      "inputs": [],
      "name": "symbol",
      "outputs": [
        {
          "internalType": "string",
          "name": "",
          "type": "string"
        }
      ],
      "stateMutability": "view",
      "type": "function"
    },
    {
      "inputs": [],
      "name": "token",
      "outputs": [
        {
          "internalType": "address",
          "name": "",
          "type": "address"
        }
      ],
      "stateMutability": "view",
      "type": "function"
    },
    {
      "inputs": [],
      "name": "totalSupply",
      "outputs": [
        {
          "internalType": "uint256",
          "name": "",
          "type": "uint256"
        }
      ],
      "stateMutability": "view",
      "type": "function"
    },
    {
      "inputs": [
        {
          "internalType": "address",
          "name": "to",
          "type": "address"
        },
        {
          "internalType": "uint256",
          "name": "value",
          "type": "uint256"
        }
      ],
      "name": "transfer",
      "outputs": [
        {
          "internalType": "bool",
          "name": "",
          "type": "bool"
        }
      ],
      "stateMutability": "nonpayable",
      "type": "function"
    },
    {
      "inputs": [
        {
          "internalType": "address",
          "name": "from",
          "type": "address"
        },
        {
          "internalType": "address",
          "name": "to",
          "type": "address"
        },
        {
          "internalType": "uint256",
          "name": "value",
          "type": "uint256"
        }
      ],
      "name": "transferFrom",
      "outputs": [
        {
          "internalType": "bool",
          "name": "",
          "type": "bool"
        }
      ],
      "stateMutability": "nonpayable",
      "type": "function"
    },
    {
      "inputs": [
        {
          "internalType": "address",
          "name": "newOwner",
          "type": "address"
        }
      ],
      "name": "transferOwnership",
      "outputs": [],
      "stateMutability": "nonpayable",
      "type": "function"
    }
  ],
  "transactionHash": "0xcb085d17d542e70cf51e9cad4f128a4766b1eb0660fd6d12cc4b7bedf7e66f59",
  "args": [
    "Morpheus",
    "MOR",
    "0x6EDCE65403992e310A62460808c4b910D972f10f",
    "0x4546F3147F094af3628531fA04FCE3347fC5D25D"
  ],
  "numDeployments": 1,
  "solcInputHash": "dc4b1cd2c2b6a36c714ea1030a33eb1f",
  "bytecode": "0x6101a06040523480156200001257600080fd5b506040516200526e3803806200526e83398101604081905262000035916200045c565b6040805180820190915260018152603160f81b60208201528490819081866012878781818181806001600160a01b0381166200008c57604051631e4fbdf760e01b8152600060048201526024015b60405180910390fd5b6200009781620002a1565b506001600160a01b038083166080528116620000c657604051632d618d8160e21b815260040160405180910390fd5b60805160405163ca5eb5e160e01b81526001600160a01b0383811660048301529091169063ca5eb5e190602401600060405180830381600087803b1580156200010e57600080fd5b505af115801562000123573d6000803e3d6000fd5b50505050505050506200013b620002f160201b60201c565b60ff168360ff16101562000162576040516301e9714b60e41b815260040160405180910390fd5b6200016f60068462000501565b6200017c90600a6200061a565b60a05250600891506200019290508382620006c3565b506009620001a18282620006c3565b50620001b39150839050600a620002f6565b61016052620001c481600b620002f6565b61018052815160208084019190912061012052815190820120610140524660e052620002546101205161014051604080517f8b73c3c69bb8fe3d512ecc4cf759cc79239f7b179b0ffacaa9a75d522b39400f60208201529081019290925260608201524660808201523060a082015260009060c00160405160208183030381529060405280519060200120905090565b60c0525050306101005250601180546001600160a01b0319166001600160a01b039290921691821790556000908152601060205260409020805460ff1916600117905550620007e9915050565b600080546001600160a01b038381166001600160a01b0319831681178455604051919092169283917f8be0079c531659141344cd1fd0a4f28419497f9722a3daafe3b4186f6b6457e09190a35050565b600690565b600060208351101562000316576200030e836200032f565b905062000329565b81620003238482620006c3565b5060ff90505b92915050565b600080829050601f815111156200035d578260405163305a27a960e01b81526004016200008391906200078f565b80516200036a82620007c4565b179392505050565b634e487b7160e01b600052604160045260246000fd5b60005b83811015620003a55781810151838201526020016200038b565b50506000910152565b600082601f830112620003c057600080fd5b81516001600160401b0380821115620003dd57620003dd62000372565b604051601f8301601f19908116603f0116810190828211818310171562000408576200040862000372565b816040528381528660208588010111156200042257600080fd5b6200043584602083016020890162000388565b9695505050505050565b80516001600160a01b03811681146200045757600080fd5b919050565b600080600080608085870312156200047357600080fd5b84516001600160401b03808211156200048b57600080fd5b6200049988838901620003ae565b95506020870151915080821115620004b057600080fd5b50620004bf87828801620003ae565b935050620004d0604086016200043f565b9150620004e0606086016200043f565b905092959194509250565b634e487b7160e01b600052601160045260246000fd5b60ff8281168282160390811115620003295762000329620004eb565b600181815b808511156200055e578160001904821115620005425762000542620004eb565b808516156200055057918102915b93841c939080029062000522565b509250929050565b600082620005775750600162000329565b81620005865750600062000329565b81600181146200059f5760028114620005aa57620005ca565b600191505062000329565b60ff841115620005be57620005be620004eb565b50506001821b62000329565b5060208310610133831016604e8410600b8410161715620005ef575081810a62000329565b620005fb83836200051d565b8060001904821115620006125762000612620004eb565b029392505050565b60006200062b60ff84168362000566565b9392505050565b600181811c908216806200064757607f821691505b6020821081036200066857634e487b7160e01b600052602260045260246000fd5b50919050565b601f821115620006be576000816000526020600020601f850160051c81016020861015620006995750805b601f850160051c820191505b81811015620006ba57828155600101620006a5565b5050505b505050565b81516001600160401b03811115620006df57620006df62000372565b620006f781620006f0845462000632565b846200066e565b602080601f8311600181146200072f5760008415620007165750858301515b600019600386901b1c1916600185901b178555620006ba565b600085815260208120601f198616915b8281101562000760578886015182559484019460019091019084016200073f565b50858210156200077f5787850151600019600388901b60f8161c191681555b5050505050600190811b01905550565b6020815260008251806020840152620007b081604085016020870162000388565b601f01601f19169190910160400192915050565b80516020808301519190811015620006685760001960209190910360031b1b16919050565b60805160a05160c05160e05161010051610120516101405161016051610180516149ce620008a060003960006123ec015260006123bf01526000611f0301526000611edb01526000611e3601526000611e6001526000611e8a01526000818161099c01528181612836015281816128ab0152612b8201526000818161077201528181610ee7015281816117d601528181611bf701528181612192015281816130680152818161330b01526133c401526149ce6000f3fe6080604052600436106103c35760003560e01c80637d25a05e116101f2578063bb0b6a531161010d578063d505accf116100a0578063f2fde38b1161006f578063f2fde38b14610c48578063fc0c546a1461069d578063fca3b5aa14610c68578063ff7bd03d14610c8857600080fd5b8063d505accf14610b76578063d82f94a314610b96578063dd62ed3e14610bb6578063f1127ed814610bfc57600080fd5b8063c7c7f5b3116100dc578063c7c7f5b314610b02578063ca5eb5e114610b23578063d045a0dc14610b43578063d424388514610b5657600080fd5b8063bb0b6a5314610a82578063bc70b35414610aaf578063bd815db014610acf578063c3cda52014610ae257600080fd5b806395d89b4111610185578063a9059cbb11610154578063a9059cbb146109f2578063aa271e1a14610a12578063b731ea0a14610a42578063b98bd07014610a6257600080fd5b806395d89b4114610975578063963efcaa1461098a5780639ab24eb0146109be5780639f68b964146109de57600080fd5b8063857749b0116101c1578063857749b0146108f75780638da5cb5b1461090b5780638e539e8c1461092957806391ddadf41461094957600080fd5b80637d25a05e146108545780637ecebe001461088f57806382413eac146108af57806384b0196e146108cf57600080fd5b80633a46b1a8116102e25780635a0dfe4d116102755780636fcfff45116102445780636fcfff45146107b457806370a08231146107e9578063715018a61461081f57806379cc67901461083457600080fd5b80635a0dfe4d146107095780635c19a95c146107405780635e280f11146107605780636fc1b31e1461079457600080fd5b80634bf5d7e9116102b15780634bf5d7e91461068857806352ae28791461069d5780635535d461146106b0578063587cde1e146106d057600080fd5b80633a46b1a8146105fb5780633b6f743b1461061b57806340c10f191461064857806342966c681461066857600080fd5b806317442b701161035a578063313ce56711610329578063313ce5671461058457806332cb6b0c146105a65780633400288b146105c65780633644e515146105e657600080fd5b806317442b701461050e57806318160ddd146105305780631f5e13341461054f57806323b872dd1461056457600080fd5b8063111ecdad11610396578063111ecdad1461048a57806313137d65146104aa578063134d4f25146104bf578063156a0d0f146104e757600080fd5b806306fdde03146103c857806307546172146103f3578063095ea7b31461042b5780630d35b4151461045b575b600080fd5b3480156103d457600080fd5b506103dd610ca8565b6040516103ea9190613875565b60405180910390f35b3480156103ff57600080fd5b50601154610413906001600160a01b031681565b6040516001600160a01b0390911681526020016103ea565b34801561043757600080fd5b5061044b61044636600461389d565b610d3a565b60405190151581526020016103ea565b34801561046757600080fd5b5061047b6104763660046138e1565b610d54565b6040516103ea93929190613915565b34801561049657600080fd5b50600454610413906001600160a01b031681565b6104bd6104b8366004613a08565b610ee5565b005b3480156104cb57600080fd5b506104d4600281565b60405161ffff90911681526020016103ea565b3480156104f357600080fd5b506040805162b9270b60e21b815260016020820152016103ea565b34801561051a57600080fd5b50604080516001815260026020820152016103ea565b34801561053c57600080fd5b506007545b6040519081526020016103ea565b34801561055b57600080fd5b506104d4600181565b34801561057057600080fd5b5061044b61057f366004613aa7565b610fa5565b34801561059057600080fd5b5060125b60405160ff90911681526020016103ea565b3480156105b257600080fd5b506105416b204fce5e3e2502611000000081565b3480156105d257600080fd5b506104bd6105e1366004613b01565b610fcb565b3480156105f257600080fd5b50610541610fe1565b34801561060757600080fd5b5061054161061636600461389d565b610ff0565b34801561062757600080fd5b5061063b610636366004613b2b565b61102c565b6040516103ea9190613b7c565b34801561065457600080fd5b506104bd61066336600461389d565b611093565b34801561067457600080fd5b506104bd610683366004613b93565b6110cf565b34801561069457600080fd5b506103dd6110dc565b3480156106a957600080fd5b5030610413565b3480156106bc57600080fd5b506103dd6106cb366004613bbe565b611154565b3480156106dc57600080fd5b506104136106eb366004613bf1565b6001600160a01b039081166000908152600d60205260409020541690565b34801561071557600080fd5b5061044b610724366004613b01565b63ffffffff919091166000908152600160205260409020541490565b34801561074c57600080fd5b506104bd61075b366004613bf1565b6111f9565b34801561076c57600080fd5b506104137f000000000000000000000000000000000000000000000000000000000000000081565b3480156107a057600080fd5b506104bd6107af366004613bf1565b611204565b3480156107c057600080fd5b506107d46107cf366004613bf1565b611261565b60405163ffffffff90911681526020016103ea565b3480156107f557600080fd5b50610541610804366004613bf1565b6001600160a01b031660009081526005602052604090205490565b34801561082b57600080fd5b506104bd61126c565b34801561084057600080fd5b506104bd61084f36600461389d565b611280565b34801561086057600080fd5b5061087761086f366004613b01565b600092915050565b6040516001600160401b0390911681526020016103ea565b34801561089b57600080fd5b506105416108aa366004613bf1565b611295565b3480156108bb57600080fd5b5061044b6108ca366004613c0e565b6112b3565b3480156108db57600080fd5b506108e46112c8565b6040516103ea9796959493929190613c74565b34801561090357600080fd5b506006610594565b34801561091757600080fd5b506000546001600160a01b0316610413565b34801561093557600080fd5b50610541610944366004613b93565b61130e565b34801561095557600080fd5b5061095e611333565b60405165ffffffffffff90911681526020016103ea565b34801561098157600080fd5b506103dd61133d565b34801561099657600080fd5b506105417f000000000000000000000000000000000000000000000000000000000000000081565b3480156109ca57600080fd5b506105416109d9366004613bf1565b61134c565b3480156109ea57600080fd5b50600061044b565b3480156109fe57600080fd5b5061044b610a0d36600461389d565b61136d565b348015610a1e57600080fd5b5061044b610a2d366004613bf1565b60106020526000908152604090205460ff1681565b348015610a4e57600080fd5b50600254610413906001600160a01b031681565b348015610a6e57600080fd5b506104bd610a7d366004613d51565b61137b565b348015610a8e57600080fd5b50610541610a9d366004613d92565b60016020526000908152604090205481565b348015610abb57600080fd5b506103dd610aca366004613dad565b611395565b6104bd610add366004613d51565b61153d565b348015610aee57600080fd5b506104bd610afd366004613e1e565b6116c7565b610b15610b10366004613e78565b61177b565b6040516103ea929190613ee5565b348015610b2f57600080fd5b506104bd610b3e366004613bf1565b6117af565b6104bd610b51366004613a08565b611835565b348015610b6257600080fd5b506104bd610b71366004613bf1565b611864565b348015610b8257600080fd5b506104bd610b91366004613f37565b6118ba565b348015610ba257600080fd5b506104bd610bb1366004613bf1565b6119f4565b348015610bc257600080fd5b50610541610bd1366004613fa5565b6001600160a01b03918216600090815260066020908152604080832093909416825291909152205490565b348015610c0857600080fd5b50610c1c610c17366004613fd3565b611a1d565b60408051825165ffffffffffff1681526020928301516001600160d01b031692810192909252016103ea565b348015610c5457600080fd5b506104bd610c63366004613bf1565b611a3b565b348015610c7457600080fd5b506104bd610c83366004613bf1565b611a76565b348015610c9457600080fd5b5061044b610ca3366004613fff565b611aa2565b606060088054610cb79061401b565b80601f0160208091040260200160405190810160405280929190818152602001828054610ce39061401b565b8015610d305780601f10610d0557610100808354040283529160200191610d30565b820191906000526020600020905b815481529060010190602001808311610d1357829003601f168201915b5050505050905090565b600033610d48818585611ad8565b60019150505b92915050565b60408051808201909152600080825260208201526060610d87604051806040016040528060008152602001600081525090565b600080306001600160a01b031663fc0c546a6040518163ffffffff1660e01b8152600401602060405180830381865afa158015610dc8573d6000803e3d6000fd5b505050506040513d601f19601f82011682018060405250810190610dec919061404f565b6001600160a01b03166318160ddd6040518163ffffffff1660e01b8152600401602060405180830381865afa158015610e29573d6000803e3d6000fd5b505050506040513d601f19601f82011682018060405250810190610e4d919061406c565b60408051808201825284815260208082018490528251600080825291810190935290975091925090610ea2565b604080518082019091526000815260606020820152815260200190600190039081610e7a5790505b509350600080610ec7604089013560608a0135610ec260208c018c613d92565b611aea565b60408051808201909152918252602082015296989597505050505050565b7f00000000000000000000000000000000000000000000000000000000000000006001600160a01b03163314610f35576040516391ac5e4f60e01b81523360048201526024015b60405180910390fd5b60208701803590610f4f90610f4a908a613d92565b611b26565b14610f8d57610f616020880188613d92565b60405163309afaf360e21b815263ffffffff909116600482015260208801356024820152604401610f2c565b610f9c87878787878787611b62565b50505050505050565b600033610fb3858285611cc9565b610fbe858585611d48565b60019150505b9392505050565b610fd3611da7565b610fdd8282611dd4565b5050565b6000610feb611e29565b905090565b600061101c610ffe83611f54565b6001600160a01b0385166000908152600e6020526040902090611fa3565b6001600160d01b03169392505050565b6040805180820190915260008082526020820152600061105c60408501356060860135610ec26020880188613d92565b91505060008061106c8684612059565b90925090506110896110816020880188613d92565b83838861217c565b9695505050505050565b3360009081526010602052604090205460ff166110c557604051632fdab94f60e11b8152336004820152602401610f2c565b610fdd828261225d565b6110d93382612293565b50565b60606110e66122c9565b65ffffffffffff166110f6611333565b65ffffffffffff161461111c576040516301bfc1c560e61b815260040160405180910390fd5b5060408051808201909152601d81527f6d6f64653d626c6f636b6e756d6265722666726f6d3d64656661756c74000000602082015290565b6003602090815260009283526040808420909152908252902080546111789061401b565b80601f01602080910402602001604051908101604052809291908181526020018280546111a49061401b565b80156111f15780601f106111c6576101008083540402835291602001916111f1565b820191906000526020600020905b8154815290600101906020018083116111d457829003601f168201915b505050505081565b33610fdd81836122d4565b61120c611da7565b600480546001600160a01b0319166001600160a01b0383169081179091556040519081527ff0be4f1e87349231d80c36b33f9e8639658eeaf474014dee15a3e6a4d4414197906020015b60405180910390a150565b6000610d4e82612346565b611274611da7565b61127e6000612368565b565b61128b823383611cc9565b610fdd8282612293565b6001600160a01b0381166000908152600c6020526040812054610d4e565b6001600160a01b03811630145b949350505050565b6000606080600080600060606112dc6123b8565b6112e46123e5565b60408051600080825260208201909252600f60f81b9b939a50919850469750309650945092509050565b600061132461131c83611f54565b600f90611fa3565b6001600160d01b031692915050565b6000610feb6122c9565b606060098054610cb79061401b565b6001600160a01b0381166000908152600e6020526040812061132490612412565b600033610d48818585611d48565b611383611da7565b610fdd611390828461413c565b61244b565b63ffffffff8416600090815260036020908152604080832061ffff871684529091528120805460609291906113c99061401b565b80601f01602080910402602001604051908101604052809291908181526020018280546113f59061401b565b80156114425780601f1061141757610100808354040283529160200191611442565b820191906000526020600020905b81548152906001019060200180831161142557829003601f168201915b5050505050905080516000036114925783838080601f0160208091040260200160405190810160405280939291908181526020018383808284376000920191909152509294506112c09350505050565b60008390036114a25790506112c0565b60028310611520576114e984848080601f01602080910402602001604051908101604052809392919081815260200183838082843760009201919091525061255292505050565b806114f78460028188614251565b6040516020016115099392919061427b565b6040516020818303038152906040529150506112c0565b8383604051639a6d49cd60e01b8152600401610f2c9291906142cc565b60005b81811015611646573683838381811061155b5761155b6142e0565b905060200281019061156d91906142f6565b90506115a061157f6020830183613d92565b602083013563ffffffff919091166000908152600160205260409020541490565b6115aa575061163e565b3063d045a0dc60c08301358360a08101356115c9610100830183614317565b6115da610100890160e08a01613bf1565b6115e86101208a018a614317565b6040518963ffffffff1660e01b815260040161160a9796959493929190614372565b6000604051808303818588803b15801561162357600080fd5b505af1158015611637573d6000803e3d6000fd5b5050505050505b600101611540565b50336001600160a01b0316638e9e70996040518163ffffffff1660e01b8152600401600060405180830381865afa158015611685573d6000803e3d6000fd5b505050506040513d6000823e601f3d908101601f191682016040526116ad91908101906143f8565b604051638351eea760e01b8152600401610f2c9190613875565b834211156116eb57604051632341d78760e11b815260048101859052602401610f2c565b604080517fe48329057bfd03d55e49b547132e39cffd9c1820ad7b9d4c5307691425d15adf60208201526001600160a01b0388169181019190915260608101869052608081018590526000906117659061175d9060a0016040516020818303038152906040528051906020012061257e565b8585856125ab565b905061177181876125d9565b610f9c81886122d4565b6117836137de565b60408051808201909152600080825260208201526117a285858561262c565b915091505b935093915050565b6117b7611da7565b60405163ca5eb5e160e01b81526001600160a01b0382811660048301527f0000000000000000000000000000000000000000000000000000000000000000169063ca5eb5e190602401600060405180830381600087803b15801561181a57600080fd5b505af115801561182e573d6000803e3d6000fd5b5050505050565b3330146118555760405163029a949d60e31b815260040160405180910390fd5b610f9c87878787878787610f8d565b61186c611da7565b600280546001600160a01b0319166001600160a01b0383169081179091556040519081527fd48d879cef83a1c0bdda516f27b13ddb1b3f8bbac1c9e1511bb2a659c242776090602001611256565b834211156118de5760405163313c898160e11b815260048101859052602401610f2c565b60007f6e71edae12b1b97f4d1f60370fef10105fa2faae0126114a169c64845d6126c988888861192b8c6001600160a01b03166000908152600c6020526040902080546001810190915590565b6040805160208101969096526001600160a01b0394851690860152929091166060840152608083015260a082015260c0810186905260e00160405160208183030381529060405280519060200120905060006119868261257e565b90506000611996828787876125ab565b9050896001600160a01b0316816001600160a01b0316146119dd576040516325c0072360e11b81526001600160a01b0380831660048301528b166024820152604401610f2c565b6119e88a8a8a611ad8565b50505050505050505050565b6119fc611da7565b6001600160a01b03166000908152601060205260409020805460ff19169055565b6040805180820190915260008082526020820152610fc48383612727565b611a43611da7565b6001600160a01b038116611a6d57604051631e4fbdf760e01b815260006004820152602401610f2c565b6110d981612368565b611a7e611da7565b6001600160a01b03166000908152601060205260409020805460ff19166001179055565b6000602082018035906001908390611aba9086613d92565b63ffffffff1681526020810191909152604001600020541492915050565b611ae5838383600161275d565b505050565b600080611af685612832565b9150819050838110156117a7576040516371c4efed60e01b81526004810182905260248101859052604401610f2c565b63ffffffff811660009081526001602052604081205480610d4e5760405163f6ff4fb760e01b815263ffffffff84166004820152602401610f2c565b6000611b74611b718787612869565b90565b90506000611ba082611b8e611b898a8a612881565b6128a4565b611b9b60208d018d613d92565b6128d9565b90506028861115611c67576000611bdd611bc060608c0160408d01614465565b611bcd60208d018d613d92565b84611bd88c8c612901565b61294c565b604051633e5ac80960e11b81529091506001600160a01b037f00000000000000000000000000000000000000000000000000000000000000001690637cb5901290611c339086908d906000908790600401614482565b600060405180830381600087803b158015611c4d57600080fd5b505af1158015611c61573d6000803e3d6000fd5b50505050505b6001600160a01b038216887fefed6d3500546b29533b128a29e3a94d70788727f0507505ac12eaf2e578fd9c611ca060208d018d613d92565b6040805163ffffffff9092168252602082018690520160405180910390a3505050505050505050565b6001600160a01b03838116600090815260066020908152604080832093861683529290522054600019811015611d425781811015611d3357604051637dc7a0d960e11b81526001600160a01b03841660048201526024810182905260448101839052606401610f2c565b611d428484848403600061275d565b50505050565b6001600160a01b038316611d7257604051634b637e8f60e11b815260006004820152602401610f2c565b6001600160a01b038216611d9c5760405163ec442f0560e01b815260006004820152602401610f2c565b611ae583838361297e565b6000546001600160a01b0316331461127e5760405163118cdaa760e01b8152336004820152602401610f2c565b63ffffffff8216600081815260016020908152604091829020849055815192835282018390527f238399d427b947898edb290f5ff0f9109849b1c3ba196a42e35f00c50a54b98b910160405180910390a15050565b6000306001600160a01b037f000000000000000000000000000000000000000000000000000000000000000016148015611e8257507f000000000000000000000000000000000000000000000000000000000000000046145b15611eac57507f000000000000000000000000000000000000000000000000000000000000000090565b610feb604080517f8b73c3c69bb8fe3d512ecc4cf759cc79239f7b179b0ffacaa9a75d522b39400f60208201527f0000000000000000000000000000000000000000000000000000000000000000918101919091527f000000000000000000000000000000000000000000000000000000000000000060608201524660808201523060a082015260009060c00160405160208183030381529060405280519060200120905090565b600080611f5f611333565b90508065ffffffffffff168310611f9a57604051637669fc0f60e11b81526004810184905265ffffffffffff82166024820152604401610f2c565b610fc483612989565b815460009081816005811115612002576000611fbe846129c0565b611fc890856144c9565b60008881526020902090915081015465ffffffffffff9081169087161015611ff257809150612000565b611ffd8160016144dc565b92505b505b600061201087878585612b19565b9050801561204b57612035876120276001846144c9565b600091825260209091200190565b54600160301b90046001600160d01b031661204e565b60005b979650505050505050565b60608060006120b6856020013561206f86612b7b565b61207c60a0890189614317565b8080601f016020809104026020016040519081016040528093929190818152602001838380828437600092019190915250612ba792505050565b90935090506000816120c95760016120cc565b60025b90506120ec6120de6020880188613d92565b82610aca60808a018a614317565b6004549093506001600160a01b031680156121725760405163043a78eb60e01b81526001600160a01b0382169063043a78eb9061212f90889088906004016144ef565b602060405180830381865afa15801561214c573d6000803e3d6000fd5b505050506040513d601f19601f820116820180604052508101906121709190614514565b505b5050509250929050565b60408051808201909152600080825260208201527f00000000000000000000000000000000000000000000000000000000000000006001600160a01b031663ddc28c586040518060a001604052808863ffffffff1681526020016121df89611b26565b8152602001878152602001868152602001851515815250306040518363ffffffff1660e01b8152600401612214929190614531565b6040805180830381865afa158015612230573d6000803e3d6000fd5b505050506040513d601f19601f8201168201806040525081019061225491906145da565b95945050505050565b6001600160a01b0382166122875760405163ec442f0560e01b815260006004820152602401610f2c565b610fdd6000838361297e565b6001600160a01b0382166122bd57604051634b637e8f60e11b815260006004820152602401610f2c565b610fdd8260008361297e565b6000610feb43612989565b6001600160a01b038281166000818152600d602052604080822080548686166001600160a01b0319821681179092559151919094169392849290917f3134e8a2e6d97e929a7e54011ea5485d7d196dd5f0ba4d4ef95803e8e3fc257f9190a4611ae5818361234186612c21565b612c3f565b6001600160a01b0381166000908152600e6020526040812054610d4e90612dab565b600080546001600160a01b038381166001600160a01b0319831681178455604051919092169283917f8be0079c531659141344cd1fd0a4f28419497f9722a3daafe3b4186f6b6457e09190a35050565b6060610feb7f0000000000000000000000000000000000000000000000000000000000000000600a612ddc565b6060610feb7f0000000000000000000000000000000000000000000000000000000000000000600b612ddc565b805460009080156124425761242c836120276001846144c9565b54600160301b90046001600160d01b0316610fc4565b60009392505050565b60005b81518110156125225761247d82828151811061246c5761246c6142e0565b602002602001015160400151612552565b81818151811061248f5761248f6142e0565b602002602001015160400151600360008484815181106124b1576124b16142e0565b60200260200101516000015163ffffffff1663ffffffff16815260200190815260200160002060008484815181106124eb576124eb6142e0565b60200260200101516020015161ffff1661ffff16815260200190815260200160002090816125199190614646565b5060010161244e565b507fbe4864a8e820971c0247f5992e2da559595f7bf076a21cb5928d443d2a13b674816040516112569190614705565b600281015161ffff8116600314610fdd5781604051639a6d49cd60e01b8152600401610f2c9190613875565b6000610d4e61258b611e29565b8360405161190160f01b8152600281019290925260228201526042902090565b6000806000806125bd88888888612e87565b9250925092506125cd8282612f56565b50909695505050505050565b6001600160a01b0382166000908152600c60205260409020805460018101909155818114611ae5576040516301d4b62360e61b81526001600160a01b038416600482015260248101829052604401610f2c565b6126346137de565b604080518082019091526000808252602082015260008061266b33604089013560608a013561266660208c018c613d92565b61300f565b9150915060008061267c8984612059565b90925090506126a861269160208b018b613d92565b83836126a2368d90038d018d614790565b8b613035565b60408051808201909152858152602080820186905282519298509096503391907f85496b760a4b7f8d66384b9df21b381f5d1b1e79f229a47aaf4c232edc2fe59a906126f6908d018d613d92565b6040805163ffffffff909216825260208201899052810187905260600160405180910390a350505050935093915050565b60408051808201909152600080825260208201526001600160a01b0383166000908152600e60205260409020610fc49083613135565b6001600160a01b0384166127875760405163e602df0560e01b815260006004820152602401610f2c565b6001600160a01b0383166127b157604051634a1406b160e11b815260006004820152602401610f2c565b6001600160a01b0380851660009081526006602090815260408083209387168352929052208290558015611d4257826001600160a01b0316846001600160a01b03167f8c5be1e5ebec7d5bd14f71427d1e84f3dd0314c0f7b2291e5b200ac8c7c3b9258460405161282491815260200190565b60405180910390a350505050565b60007f000000000000000000000000000000000000000000000000000000000000000061285f81846147d8565b610d4e91906147fa565b60006128786020828486614251565b610fc491614811565b6000612891602860208486614251565b61289a9161482f565b60c01c9392505050565b6000610d4e7f00000000000000000000000000000000000000000000000000000000000000006001600160401b0384166147fa565b60006001600160a01b0384166128ef5761dead93505b6128f9848461225d565b509092915050565b60606129108260288186614251565b8080601f016020809104026020016040519081016040528093929190818152602001838380828437600092019190915250929695505050505050565b606084848484604051602001612965949392919061485f565b6040516020818303038152906040529050949350505050565b611ae58383836131a5565b600065ffffffffffff8211156129bc576040516306dfcc6560e41b81526030600482015260248101839052604401610f2c565b5090565b6000600182116129ce575090565b816001600160801b82106129e75760809190911c9060401b5b680100000000000000008210612a025760409190911c9060201b5b6401000000008210612a195760209190911c9060101b5b620100008210612a2e5760109190911c9060081b5b6101008210612a425760089190911c9060041b5b60108210612a555760049190911c9060021b5b60048210612a615760011b5b600302600190811c90818581612a7957612a796147c2565b048201901c90506001818581612a9157612a916147c2565b048201901c90506001818581612aa957612aa96147c2565b048201901c90506001818581612ac157612ac16147c2565b048201901c90506001818581612ad957612ad96147c2565b048201901c90506001818581612af157612af16147c2565b048201901c9050612b10818581612b0a57612b0a6147c2565b04821190565b90039392505050565b60005b81831015612b73576000612b308484613211565b60008781526020902090915065ffffffffffff86169082015465ffffffffffff161115612b5f57809250612b6d565b612b6a8160016144dc565b93505b50612b1c565b509392505050565b6000610d4e7f0000000000000000000000000000000000000000000000000000000000000000836147d8565b8051606090151580612bf0578484604051602001612bdc92919091825260c01b6001600160c01b031916602082015260280190565b604051602081830303815290604052612c17565b84843385604051602001612c0794939291906148ae565b6040516020818303038152906040525b9150935093915050565b6001600160a01b038116600090815260056020526040812054610d4e565b816001600160a01b0316836001600160a01b031614158015612c615750600081115b15611ae5576001600160a01b03831615612d09576001600160a01b0383166000908152600e602052604081208190612ca49061322c612c9f86613238565b61326c565b6001600160d01b031691506001600160d01b03169150846001600160a01b03167fdec2bacdd2f05b59de34da9b523dff8be42e5e38e818c82fdb0bae774387a7248383604051612cfe929190918252602082015260400190565b60405180910390a250505b6001600160a01b03821615611ae5576001600160a01b0382166000908152600e602052604081208190612d4290613298612c9f86613238565b6001600160d01b031691506001600160d01b03169150836001600160a01b03167fdec2bacdd2f05b59de34da9b523dff8be42e5e38e818c82fdb0bae774387a7248383604051612d9c929190918252602082015260400190565b60405180910390a25050505050565b600063ffffffff8211156129bc576040516306dfcc6560e41b81526020600482015260248101839052604401610f2c565b606060ff8314612df657612def836132a4565b9050610d4e565b818054612e029061401b565b80601f0160208091040260200160405190810160405280929190818152602001828054612e2e9061401b565b8015612e7b5780601f10612e5057610100808354040283529160200191612e7b565b820191906000526020600020905b815481529060010190602001808311612e5e57829003601f168201915b50505050509050610d4e565b600080807f7fffffffffffffffffffffffffffffff5d576e7357a4501ddfe92f46681b20a0841115612ec25750600091506003905082612f4c565b604080516000808252602082018084528a905260ff891692820192909252606081018790526080810186905260019060a0016020604051602081039080840390855afa158015612f16573d6000803e3d6000fd5b5050604051601f1901519150506001600160a01b038116612f4257506000925060019150829050612f4c565b9250600091508190505b9450945094915050565b6000826003811115612f6a57612f6a6148f1565b03612f73575050565b6001826003811115612f8757612f876148f1565b03612fa55760405163f645eedf60e01b815260040160405180910390fd5b6002826003811115612fb957612fb96148f1565b03612fda5760405163fce698f760e01b815260048101829052602401610f2c565b6003826003811115612fee57612fee6148f1565b03610fdd576040516335e2f38360e21b815260048101829052602401610f2c565b60008061301d858585611aea565b909250905061302c8683612293565b94509492505050565b61303d6137de565b600061304c84600001516132e3565b602085015190915015613066576130668460200151613307565b7f00000000000000000000000000000000000000000000000000000000000000006001600160a01b0316632637a450826040518060a001604052808b63ffffffff1681526020016130b68c611b26565b81526020018a815260200189815260200160008960200151111515815250866040518463ffffffff1660e01b81526004016130f2929190614531565b60806040518083038185885af1158015613110573d6000803e3d6000fd5b50505050506040513d601f19601f8201168201806040525081019061204e9190614907565b6040805180820190915260008082526020820152826000018263ffffffff1681548110613164576131646142e0565b60009182526020918290206040805180820190915291015465ffffffffffff81168252600160301b90046001600160d01b0316918101919091529392505050565b6131b08383836133e9565b6001600160a01b0383166132065760006131c960075490565b90506b204fce5e3e250261100000008082111561320357604051630e58ae9360e11b81526004810183905260248101829052604401610f2c565b50505b611ae5838383613513565b600061322060028484186147d8565b610fc4908484166144dc565b6000610fc48284614951565b60006001600160d01b038211156129bc576040516306dfcc6560e41b815260d0600482015260248101839052604401610f2c565b6000806117a261327a611333565b61329061328688612412565b868863ffffffff16565b879190613589565b6000610fc48284614978565b606060006132b183613597565b604080516020808252818301909252919250600091906020820181803683375050509182525060208101929092525090565b60008134146129bc576040516304fb820960e51b8152346004820152602401610f2c565b60007f00000000000000000000000000000000000000000000000000000000000000006001600160a01b031663e4fe1d946040518163ffffffff1660e01b8152600401602060405180830381865afa158015613367573d6000803e3d6000fd5b505050506040513d601f19601f8201168201806040525081019061338b919061404f565b90506001600160a01b0381166133b4576040516329b99a9560e11b815260040160405180910390fd5b610fdd6001600160a01b038216337f0000000000000000000000000000000000000000000000000000000000000000856135bf565b6001600160a01b03831661341457806007600082825461340991906144dc565b909155506134869050565b6001600160a01b038316600090815260056020526040902054818110156134675760405163391434e360e21b81526001600160a01b03851660048201526024810182905260448101839052606401610f2c565b6001600160a01b03841660009081526005602052604090209082900390555b6001600160a01b0382166134a2576007805482900390556134c1565b6001600160a01b03821660009081526005602052604090208054820190555b816001600160a01b0316836001600160a01b03167fddf252ad1be2c89b69c2b068fc378daa952ba7f163c4a11628f55a4df523b3ef8360405161350691815260200190565b60405180910390a3505050565b6001600160a01b03831661353557613532600f613298612c9f84613238565b50505b6001600160a01b03821661355757613554600f61322c612c9f84613238565b50505b6001600160a01b038381166000908152600d6020526040808220548584168352912054611ae592918216911683612c3f565b6000806117a2858585613619565b600060ff8216601f811115610d4e57604051632cd44ac360e21b815260040160405180910390fd5b604080516001600160a01b0385811660248301528416604482015260648082018490528251808303909101815260849091019091526020810180516001600160e01b03166323b872dd60e01b179052611d4290859061376d565b825460009081908015613712576000613637876120276001856144c9565b805490915065ffffffffffff80821691600160301b90046001600160d01b031690881682111561367a57604051632520601d60e01b815260040160405180910390fd5b8765ffffffffffff168265ffffffffffff16036136b357825465ffffffffffff16600160301b6001600160d01b03891602178355613704565b6040805180820190915265ffffffffffff808a1682526001600160d01b03808a1660208085019182528d54600181018f5560008f81529190912094519151909216600160301b029216919091179101555b94508593506117a792505050565b50506040805180820190915265ffffffffffff80851682526001600160d01b0380851660208085019182528854600181018a5560008a815291822095519251909316600160301b0291909316179201919091559050816117a7565b600080602060008451602086016000885af180613790576040513d6000823e3d81fd5b50506000513d915081156137a85780600114156137b5565b6001600160a01b0384163b155b15611d4257604051635274afe760e01b81526001600160a01b0385166004820152602401610f2c565b60405180606001604052806000801916815260200160006001600160401b03168152602001613820604051806040016040528060008152602001600081525090565b905290565b60005b83811015613840578181015183820152602001613828565b50506000910152565b60008151808452613861816020860160208601613825565b601f01601f19169290920160200192915050565b602081526000610fc46020830184613849565b6001600160a01b03811681146110d957600080fd5b600080604083850312156138b057600080fd5b82356138bb81613888565b946020939093013593505050565b600060e082840312156138db57600080fd5b50919050565b6000602082840312156138f357600080fd5b81356001600160401b0381111561390957600080fd5b6112c0848285016138c9565b8351815260208085015190820152600060a08201604060a0604085015281865180845260c08601915060c08160051b8701019350602080890160005b838110156139905788870360bf1901855281518051885283015183880187905261397d87890182613849565b9750509382019390820190600101613951565b505087516060880152505050602085015160808501525090506112c0565b6000606082840312156138db57600080fd5b60008083601f8401126139d257600080fd5b5081356001600160401b038111156139e957600080fd5b602083019150836020828501011115613a0157600080fd5b9250929050565b600080600080600080600060e0888a031215613a2357600080fd5b613a2d89896139ae565b96506060880135955060808801356001600160401b0380821115613a5057600080fd5b613a5c8b838c016139c0565b909750955060a08a01359150613a7182613888565b90935060c08901359080821115613a8757600080fd5b50613a948a828b016139c0565b989b979a50959850939692959293505050565b600080600060608486031215613abc57600080fd5b8335613ac781613888565b92506020840135613ad781613888565b929592945050506040919091013590565b803563ffffffff81168114613afc57600080fd5b919050565b60008060408385031215613b1457600080fd5b6138bb83613ae8565b80151581146110d957600080fd5b60008060408385031215613b3e57600080fd5b82356001600160401b03811115613b5457600080fd5b613b60858286016138c9565b9250506020830135613b7181613b1d565b809150509250929050565b815181526020808301519082015260408101610d4e565b600060208284031215613ba557600080fd5b5035919050565b803561ffff81168114613afc57600080fd5b60008060408385031215613bd157600080fd5b613bda83613ae8565b9150613be860208401613bac565b90509250929050565b600060208284031215613c0357600080fd5b8135610fc481613888565b60008060008060a08587031215613c2457600080fd5b613c2e86866139ae565b935060608501356001600160401b03811115613c4957600080fd5b613c55878288016139c0565b9094509250506080850135613c6981613888565b939692955090935050565b60ff60f81b881681526000602060e06020840152613c9560e084018a613849565b8381036040850152613ca7818a613849565b606085018990526001600160a01b038816608086015260a0850187905284810360c08601528551808252602080880193509091019060005b81811015613cfb57835183529284019291840191600101613cdf565b50909c9b505050505050505050505050565b60008083601f840112613d1f57600080fd5b5081356001600160401b03811115613d3657600080fd5b6020830191508360208260051b8501011115613a0157600080fd5b60008060208385031215613d6457600080fd5b82356001600160401b03811115613d7a57600080fd5b613d8685828601613d0d565b90969095509350505050565b600060208284031215613da457600080fd5b610fc482613ae8565b60008060008060608587031215613dc357600080fd5b613dcc85613ae8565b9350613dda60208601613bac565b925060408501356001600160401b03811115613df557600080fd5b613e01878288016139c0565b95989497509550505050565b803560ff81168114613afc57600080fd5b60008060008060008060c08789031215613e3757600080fd5b8635613e4281613888565b95506020870135945060408701359350613e5e60608801613e0d565b92506080870135915060a087013590509295509295509295565b60008060008385036080811215613e8e57600080fd5b84356001600160401b03811115613ea457600080fd5b613eb0878288016138c9565b9450506040601f1982011215613ec557600080fd5b506020840191506060840135613eda81613888565b809150509250925092565b600060c082019050835182526001600160401b0360208501511660208301526040840151613f20604084018280518252602090810151910152565b5082516080830152602083015160a0830152610fc4565b600080600080600080600060e0888a031215613f5257600080fd5b8735613f5d81613888565b96506020880135613f6d81613888565b95506040880135945060608801359350613f8960808901613e0d565b925060a0880135915060c0880135905092959891949750929550565b60008060408385031215613fb857600080fd5b8235613fc381613888565b91506020830135613b7181613888565b60008060408385031215613fe657600080fd5b8235613ff181613888565b9150613be860208401613ae8565b60006060828403121561401157600080fd5b610fc483836139ae565b600181811c9082168061402f57607f821691505b6020821081036138db57634e487b7160e01b600052602260045260246000fd5b60006020828403121561406157600080fd5b8151610fc481613888565b60006020828403121561407e57600080fd5b5051919050565b634e487b7160e01b600052604160045260246000fd5b604051606081016001600160401b03811182821017156140bd576140bd614085565b60405290565b604080519081016001600160401b03811182821017156140bd576140bd614085565b604051601f8201601f191681016001600160401b038111828210171561410d5761410d614085565b604052919050565b60006001600160401b0382111561412e5761412e614085565b50601f01601f191660200190565b60006001600160401b038084111561415657614156614085565b8360051b60206141678183016140e5565b86815291850191818101903684111561417f57600080fd5b865b84811015614245578035868111156141995760008081fd5b880160603682900312156141ad5760008081fd5b6141b561409b565b6141be82613ae8565b81526141cb868301613bac565b86820152604080830135898111156141e35760008081fd5b929092019136601f8401126141f85760008081fd5b823561420b61420682614115565b6140e5565b81815236898387010111156142205760008081fd5b818986018a830137600091810189019190915290820152845250918301918301614181565b50979650505050505050565b6000808585111561426157600080fd5b8386111561426e57600080fd5b5050820193919092039150565b6000845161428d818460208901613825565b8201838582376000930192835250909392505050565b81835281816020850137506000828201602090810191909152601f909101601f19169091010190565b6020815260006112c06020830184866142a3565b634e487b7160e01b600052603260045260246000fd5b6000823561013e1983360301811261430d57600080fd5b9190910192915050565b6000808335601e1984360301811261432e57600080fd5b8301803591506001600160401b0382111561434857600080fd5b602001915036819003821315613a0157600080fd5b6001600160401b03811681146110d957600080fd5b63ffffffff61438089613ae8565b168152602088013560208201526000604089013561439d8161435d565b6001600160401b03811660408401525087606083015260e060808301526143c860e0830187896142a3565b6001600160a01b03861660a084015282810360c08401526143ea8185876142a3565b9a9950505050505050505050565b60006020828403121561440a57600080fd5b81516001600160401b0381111561442057600080fd5b8201601f8101841361443157600080fd5b805161443f61420682614115565b81815285602083850101111561445457600080fd5b612254826020830160208601613825565b60006020828403121561447757600080fd5b8135610fc48161435d565b60018060a01b038516815283602082015261ffff831660408201526080606082015260006110896080830184613849565b634e487b7160e01b600052601160045260246000fd5b81810381811115610d4e57610d4e6144b3565b80820180821115610d4e57610d4e6144b3565b6040815260006145026040830185613849565b82810360208401526122548185613849565b60006020828403121561452657600080fd5b8151610fc481613b1d565b6040815263ffffffff8351166040820152602083015160608201526000604084015160a0608084015261456760e0840182613849565b90506060850151603f198483030160a08501526145848282613849565b60809690960151151560c08501525050506001600160a01b039190911660209091015290565b6000604082840312156145bc57600080fd5b6145c46140c3565b9050815181526020820151602082015292915050565b6000604082840312156145ec57600080fd5b610fc483836145aa565b601f821115611ae5576000816000526020600020601f850160051c8101602086101561461f5750805b601f850160051c820191505b8181101561463e5782815560010161462b565b505050505050565b81516001600160401b0381111561465f5761465f614085565b6146738161466d845461401b565b846145f6565b602080601f8311600181146146a857600084156146905750858301515b600019600386901b1c1916600185901b17855561463e565b600085815260208120601f198616915b828110156146d7578886015182559484019460019091019084016146b8565b50858210156146f55787850151600019600388901b60f8161c191681555b5050505050600190811b01905550565b600060208083018184528085518083526040925060408601915060408160051b87010184880160005b8381101561478257888303603f190185528151805163ffffffff1684528781015161ffff1688850152860151606087850181905261476e81860183613849565b96890196945050509086019060010161472e565b509098975050505050505050565b6000604082840312156147a257600080fd5b6147aa6140c3565b82358152602083013560208201528091505092915050565b634e487b7160e01b600052601260045260246000fd5b6000826147f557634e487b7160e01b600052601260045260246000fd5b500490565b8082028115828204841417610d4e57610d4e6144b3565b80356020831015610d4e57600019602084900360031b1b1692915050565b6001600160c01b031981358181169160088510156148575780818660080360031b1b83161692505b505092915050565b6001600160401b0360c01b8560c01b16815263ffffffff60e01b8460e01b16600882015282600c8201526000825161489e81602c850160208701613825565b91909101602c0195945050505050565b8481526001600160401b0360c01b8460c01b166020820152826028820152600082516148e1816048850160208701613825565b9190910160480195945050505050565b634e487b7160e01b600052602160045260246000fd5b60006080828403121561491957600080fd5b61492161409b565b8251815260208301516149338161435d565b602082015261494584604085016145aa565b60408201529392505050565b6001600160d01b03828116828216039080821115614971576149716144b3565b5092915050565b6001600160d01b03818116838216019080821115614971576149716144b356fea2646970667358221220d236f731c4fd7b69217cf3cd253a868dbc1e493eb55e7724d507030ca40b733464736f6c63430008160033",
  "devdoc": {
    "errors": {
      "CheckpointUnorderedInsertion()": [
        {
          "details": "A value was attempted to be inserted on a past checkpoint."
        }
      ],
      "ECDSAInvalidSignature()": [
        {
          "details": "The signature derives the `address(0)`."
        }
      ],
      "ECDSAInvalidSignatureLength(uint256)": [
        {
          "details": "The signature has an invalid length."
        }
      ],
      "ECDSAInvalidSignatureS(bytes32)": [
        {
          "details": "The signature has an S value that is in the upper half order."
        }
      ],
      "ERC20ExceededSafeSupply(uint256,uint256)": [
        {
          "details": "Total supply cap has been exceeded, introducing a risk of votes overflowing."
        }
      ],
      "ERC20InsufficientAllowance(address,uint256,uint256)": [
        {
          "details": "Indicates a failure with the `spender`s `allowance`. Used in transfers.",
          "params": {
            "allowance": "Amount of tokens a `spender` is allowed to operate with.",
            "needed": "Minimum amount required to perform a transfer.",
            "spender": "Address that may be allowed to operate on tokens without being their owner."
          }
        }
      ],
      "ERC20InsufficientBalance(address,uint256,uint256)": [
        {
          "details": "Indicates an error related to the current `balance` of a `sender`. Used in transfers.",
          "params": {
            "balance": "Current balance for the interacting account.",
            "needed": "Minimum amount required to perform a transfer.",
            "sender": "Address whose tokens are being transferred."
          }
        }
      ],
      "ERC20InvalidApprover(address)": [
        {
          "details": "Indicates a failure with the `approver` of a token to be approved. Used in approvals.",
          "params": {
            "approver": "Address initiating an approval operation."
          }
        }
      ],
      "ERC20InvalidReceiver(address)": [
        {
          "details": "Indicates a failure with the token `receiver`. Used in transfers.",
          "params": {
            "receiver": "Address to which tokens are being transferred."
          }
        }
      ],
      "ERC20InvalidSender(address)": [
        {
          "details": "Indicates a failure with the token `sender`. Used in transfers.",
          "params": {
            "sender": "Address whose tokens are being transferred."
          }
        }
      ],
      "ERC20InvalidSpender(address)": [
        {
          "details": "Indicates a failure with the `spender` to be approved. Used in approvals.",
          "params": {
            "spender": "Address that may be allowed to operate on tokens without being their owner."
          }
        }
      ],
      "ERC2612ExpiredSignature(uint256)": [
        {
          "details": "Permit deadline has expired."
        }
      ],
      "ERC2612InvalidSigner(address,address)": [
        {
          "details": "Mismatched signature."
        }
      ],
      "ERC5805FutureLookup(uint256,uint48)": [
        {
          "details": "Lookup to future votes is not available."
        }
      ],
      "ERC6372InconsistentClock()": [
        {
          "details": "The clock was incorrectly modified."
        }
      ],
      "InvalidAccountNonce(address,uint256)": [
        {
          "details": "The nonce used for an `account` is not the expected current nonce."
        }
      ],
      "OwnableInvalidOwner(address)": [
        {
          "details": "The owner is not a valid owner account. (eg. `address(0)`)"
        }
      ],
      "OwnableUnauthorizedAccount(address)": [
        {
          "details": "The caller account is not authorized to perform an operation."
        }
      ],
      "SafeCastOverflowedUintDowncast(uint8,uint256)": [
        {
          "details": "Value doesn't fit in an uint of `bits` size."
        }
      ],
      "SafeERC20FailedOperation(address)": [
        {
          "details": "An operation with an ERC-20 token failed."
        }
      ],
      "VotesExpiredSignature(uint256)": [
        {
          "details": "The signature used has expired."
        }
      ]
    },
    "events": {
      "Approval(address,address,uint256)": {
        "details": "Emitted when the allowance of a `spender` for an `owner` is set by a call to {approve}. `value` is the new allowance."
      },
      "DelegateChanged(address,address,address)": {
        "details": "Emitted when an account changes their delegate."
      },
      "DelegateVotesChanged(address,uint256,uint256)": {
        "details": "Emitted when a token transfer or delegate change results in changes to a delegate's number of voting units."
      },
      "EIP712DomainChanged()": {
        "details": "MAY be emitted to signal that the domain could have changed."
      },
      "PreCrimeSet(address)": {
        "details": "Emitted when the preCrime contract address is set.",
        "params": {
          "preCrimeAddress": "The address of the preCrime contract."
        }
      },
      "Transfer(address,address,uint256)": {
        "details": "Emitted when `value` tokens are moved from one account (`from`) to another (`to`). Note that `value` may be zero."
      }
    },
    "kind": "dev",
    "methods": {
      "CLOCK_MODE()": {
        "details": "Machine-readable description of the clock as specified in ERC-6372."
      },
      "DOMAIN_SEPARATOR()": {
        "details": "Returns the domain separator used in the encoding of the signature for {permit}, as defined by {EIP712}."
      },
      "allowInitializePath((uint32,bytes32,uint64))": {
        "details": "This indicates to the endpoint that the OApp has enabled msgs for this particular path to be received.This defaults to assuming if a peer has been set, its initialized. Can be overridden by the OApp if there is other logic to determine this.",
        "params": {
          "origin": "The origin information containing the source endpoint and sender address."
        },
        "returns": {
          "_0": "Whether the path has been initialized."
        }
      },
      "allowance(address,address)": {
        "details": "See {IERC20-allowance}."
      },
      "approvalRequired()": {
        "details": "In the case of OFT where the contract IS the token, approval is NOT required.",
        "returns": {
          "_0": "requiresApproval Needs approval of the underlying token implementation."
        }
      },
      "approve(address,uint256)": {
        "details": "See {IERC20-approve}. NOTE: If `value` is the maximum `uint256`, the allowance is not updated on `transferFrom`. This is semantically equivalent to an infinite approval. Requirements: - `spender` cannot be the zero address."
      },
      "balanceOf(address)": {
        "details": "See {IERC20-balanceOf}."
      },
      "burn(uint256)": {
        "details": "Destroys a `value` amount of tokens from the caller. See {ERC20-_burn}."
      },
      "burnFrom(address,uint256)": {
        "details": "Destroys a `value` amount of tokens from `account`, deducting from the caller's allowance. See {ERC20-_burn} and {ERC20-allowance}. Requirements: - the caller must have allowance for ``accounts``'s tokens of at least `value`."
      },
      "checkpoints(address,uint32)": {
        "details": "Get the `pos`-th checkpoint for `account`."
      },
      "clock()": {
        "details": "Clock used for flagging checkpoints. Can be overridden to implement timestamp based checkpoints (and voting), in which case {CLOCK_MODE} should be overridden as well to match."
      },
      "combineOptions(uint32,uint16,bytes)": {
        "details": "If there is an enforced lzReceive option: - {gasLimit: 200k, msg.value: 1 ether} AND a caller supplies a lzReceive option: {gasLimit: 100k, msg.value: 0.5 ether} - The resulting options will be {gasLimit: 300k, msg.value: 1.5 ether} when the message is executed on the remote lzReceive() function.This presence of duplicated options is handled off-chain in the verifier/executor.",
        "params": {
          "_eid": "The endpoint ID.",
          "_extraOptions": "Additional options passed by the caller.",
          "_msgType": "The OAPP message type."
        },
        "returns": {
          "_0": "options The combination of caller specified options AND enforced options."
        }
      },
      "decimals()": {
        "details": "Returns the number of decimals used to get its user representation. For example, if `decimals` equals `2`, a balance of `505` tokens should be displayed to a user as `5.05` (`505 / 10 ** 2`). Tokens usually opt for a value of 18, imitating the relationship between Ether and Wei. This is the default value returned by this function, unless it's overridden. NOTE: This information is only used for _display_ purposes: it in no way affects any of the arithmetic of the contract, including {IERC20-balanceOf} and {IERC20-transfer}."
      },
      "delegate(address)": {
        "details": "Delegates votes from the sender to `delegatee`."
      },
      "delegateBySig(address,uint256,uint256,uint8,bytes32,bytes32)": {
        "details": "Delegates votes from signer to `delegatee`."
      },
      "delegates(address)": {
        "details": "Returns the delegate that `account` has chosen."
      },
      "eip712Domain()": {
        "details": "See {IERC-5267}."
      },
      "getPastTotalSupply(uint256)": {
        "details": "Returns the total supply of votes available at a specific moment in the past. If the `clock()` is configured to use block numbers, this will return the value at the end of the corresponding block. NOTE: This value is the sum of all available votes, which is not necessarily the sum of all delegated votes. Votes that have not been delegated are still part of total supply, even though they would not participate in a vote. Requirements: - `timepoint` must be in the past. If operating using block numbers, the block must be already mined."
      },
      "getPastVotes(address,uint256)": {
        "details": "Returns the amount of votes that `account` had at a specific moment in the past. If the `clock()` is configured to use block numbers, this will return the value at the end of the corresponding block. Requirements: - `timepoint` must be in the past. If operating using block numbers, the block must be already mined."
      },
      "getVotes(address)": {
        "details": "Returns the current amount of votes that `account` has."
      },
      "isComposeMsgSender((uint32,bytes32,uint64),bytes,address)": {
        "details": "_origin The origin information containing the source endpoint and sender address.  - srcEid: The source chain endpoint ID.  - sender: The sender address on the src chain.  - nonce: The nonce of the message._message The lzReceive payload.Applications can optionally choose to implement separate composeMsg senders that are NOT the bridging layer.The default sender IS the OAppReceiver implementer.",
        "params": {
          "_sender": "The sender address."
        },
        "returns": {
          "_0": "isSender Is a valid sender."
        }
      },
      "isPeer(uint32,bytes32)": {
        "details": "Check if the peer is considered 'trusted' by the OApp.Enables OAppPreCrimeSimulator to check whether a potential Inbound Packet is from a trusted source.",
        "params": {
          "_eid": "The endpoint ID to check.",
          "_peer": "The peer to check."
        },
        "returns": {
          "_0": "Whether the peer passed is considered 'trusted' by the OApp."
        }
      },
      "lzReceive((uint32,bytes32,uint64),bytes32,bytes,address,bytes)": {
        "details": "Entry point for receiving messages or packets from the endpoint.Entry point for receiving msg/packet from the LayerZero endpoint.",
        "params": {
          "_executor": "The address of the executor for the received message.",
          "_extraData": "Additional arbitrary data provided by the corresponding executor.",
          "_guid": "The unique identifier for the received LayerZero message.",
          "_message": "The payload of the received message.",
          "_origin": "The origin information containing the source endpoint and sender address.  - srcEid: The source chain endpoint ID.  - sender: The sender address on the src chain.  - nonce: The nonce of the message."
        }
      },
      "lzReceiveAndRevert(((uint32,bytes32,uint64),uint32,address,bytes32,uint256,address,bytes,bytes)[])": {
        "details": "Interface for pre-crime simulations. Always reverts at the end with the simulation results.WARNING: MUST revert at the end with the simulation results.Gives the preCrime implementation the ability to mock sending packets to the lzReceive function, WITHOUT actually executing them.",
        "params": {
          "_packets": "An array of InboundPacket objects representing received packets to be delivered."
        }
      },
      "lzReceiveSimulate((uint32,bytes32,uint64),bytes32,bytes,address,bytes)": {
        "details": "Is effectively an internal function because msg.sender must be address(this). Allows resetting the call stack for 'internal' calls.",
        "params": {
          "_executor": "The executor address for the packet.",
          "_extraData": "Additional data for the packet.",
          "_guid": "The unique identifier of the packet.",
          "_message": "The message payload of the packet.",
          "_origin": "The origin information containing the source endpoint and sender address.  - srcEid: The source chain endpoint ID.  - sender: The sender address on the src chain.  - nonce: The nonce of the message."
        }
      },
      "name()": {
        "details": "Returns the name of the token."
      },
      "nextNonce(uint32,bytes32)": {
        "details": "_srcEid The source endpoint ID._sender The sender address.The path nonce starts from 1. If 0 is returned it means that there is NO nonce ordered enforcement.Is required by the off-chain executor to determine the OApp expects msg execution is ordered.This is also enforced by the OApp.By default this is NOT enabled. ie. nextNonce is hardcoded to return 0.",
        "returns": {
          "nonce": "The next nonce."
        }
      },
      "numCheckpoints(address)": {
        "details": "Get number of checkpoints for `account`."
      },
      "oApp()": {
        "details": "Retrieves the address of the OApp contract.The simulator contract is the base contract for the OApp by default.If the simulator is a separate contract, override this function.",
        "returns": {
          "_0": "The address of the OApp contract."
        }
      },
      "oAppVersion()": {
        "returns": {
          "receiverVersion": "The version of the OAppReceiver.sol implementation.",
          "senderVersion": "The version of the OAppSender.sol implementation."
        }
      },
      "oftVersion()": {
        "details": "interfaceId: This specific interface ID is '0x02e49c2c'.version: Indicates a cross-chain compatible msg encoding with other OFTs.If a new feature is added to the OFT cross-chain msg encoding, the version will be incremented. ie. localOFT version(x,1) CAN send messages to remoteOFT version(x,1)",
        "returns": {
          "interfaceId": "The interface ID.",
          "version": "The version."
        }
      },
      "owner()": {
        "details": "Returns the address of the current owner."
      },
      "permit(address,address,uint256,uint256,uint8,bytes32,bytes32)": {
        "details": "Sets `value` as the allowance of `spender` over ``owner``'s tokens, given ``owner``'s signed approval. IMPORTANT: The same issues {IERC20-approve} has related to transaction ordering also apply here. Emits an {Approval} event. Requirements: - `spender` cannot be the zero address. - `deadline` must be a timestamp in the future. - `v`, `r` and `s` must be a valid `secp256k1` signature from `owner` over the EIP712-formatted function arguments. - the signature must use ``owner``'s current nonce (see {nonces}). For more information on the signature format, see the https://eips.ethereum.org/EIPS/eip-2612#specification[relevant EIP section]. CAUTION: See Security Considerations above."
      },
      "quoteOFT((uint32,bytes32,uint256,uint256,bytes,bytes,bytes))": {
        "params": {
          "_sendParam": "The parameters for the send operation."
        },
        "returns": {
          "oftFeeDetails": "The details of OFT fees.",
          "oftLimit": "The OFT limit information.",
          "oftReceipt": "The OFT receipt information."
        }
      },
      "quoteSend((uint32,bytes32,uint256,uint256,bytes,bytes,bytes),bool)": {
        "details": "MessagingFee: LayerZero msg fee  - nativeFee: The native fee.  - lzTokenFee: The lzToken fee.",
        "params": {
          "_payInLzToken": "Flag indicating whether the caller is paying in the LZ token.",
          "_sendParam": "The parameters for the send() operation."
        },
        "returns": {
          "msgFee": "The calculated LayerZero messaging fee from the send() operation."
        }
      },
      "renounceOwnership()": {
        "details": "Leaves the contract without owner. It will not be possible to call `onlyOwner` functions. Can only be called by the current owner. NOTE: Renouncing ownership will leave the contract without an owner, thereby disabling any functionality that is only available to the owner."
      },
      "send((uint32,bytes32,uint256,uint256,bytes,bytes,bytes),(uint256,uint256),address)": {
        "details": "Executes the send operation.MessagingReceipt: LayerZero msg receipt  - guid: The unique identifier for the sent message.  - nonce: The nonce of the sent message.  - fee: The LayerZero fee incurred for the message.",
        "params": {
          "_fee": "The calculated fee for the send() operation.      - nativeFee: The native fee.      - lzTokenFee: The lzToken fee.",
          "_refundAddress": "The address to receive any excess funds.",
          "_sendParam": "The parameters for the send operation."
        },
        "returns": {
          "msgReceipt": "The receipt for the send operation.",
          "oftReceipt": "The OFT receipt information."
        }
      },
      "setDelegate(address)": {
        "details": "Only the owner/admin of the OApp can call this function.Provides the ability for a delegate to set configs, on behalf of the OApp, directly on the Endpoint contract.",
        "params": {
          "_delegate": "The address of the delegate to be set."
        }
      },
      "setEnforcedOptions((uint32,uint16,bytes)[])": {
        "details": "Sets the enforced options for specific endpoint and message type combinations.Only the owner/admin of the OApp can call this function.Provides a way for the OApp to enforce things like paying for PreCrime, AND/OR minimum dst lzReceive gas amounts etc.These enforced options can vary as the potential options/execution on the remote may differ as per the msgType. eg. Amount of lzReceive() gas necessary to deliver a lzCompose() message adds overhead you dont want to pay if you are only making a standard LayerZero message ie. lzReceive() WITHOUT sendCompose().",
        "params": {
          "_enforcedOptions": "An array of EnforcedOptionParam structures specifying enforced options."
        }
      },
      "setMsgInspector(address)": {
        "details": "Sets the message inspector address for the OFT.This is an optional contract that can be used to inspect both 'message' and 'options'.Set it to address(0) to disable it, or set it to a contract address to enable it.",
        "params": {
          "_msgInspector": "The address of the message inspector."
        }
      },
      "setPeer(uint32,bytes32)": {
        "details": "Only the owner/admin of the OApp can call this function.Indicates that the peer is trusted to send LayerZero messages to this OApp.Set this to bytes32(0) to remove the peer address.Peer is a bytes32 to accommodate non-evm chains.",
        "params": {
          "_eid": "The endpoint ID.",
          "_peer": "The address of the peer to be associated with the corresponding endpoint."
        }
      },
      "setPreCrime(address)": {
        "details": "Sets the preCrime contract address.",
        "params": {
          "_preCrime": "The address of the preCrime contract."
        }
      },
      "sharedDecimals()": {
        "details": "Retrieves the shared decimals of the OFT.Sets an implicit cap on the amount of tokens, over uint64.max() will need some sort of outbound cap / totalSupply cap Lowest common decimal denominator between chains. Defaults to 6 decimal places to provide up to 18,446,744,073,709.551615 units (max uint64). For tokens exceeding this totalSupply(), they will need to override the sharedDecimals function with something smaller. ie. 4 sharedDecimals would be 1,844,674,407,370,955.1615",
        "returns": {
          "_0": "The shared decimals of the OFT."
        }
      },
      "symbol()": {
        "details": "Returns the symbol of the token, usually a shorter version of the name."
      },
      "token()": {
        "details": "Retrieves the address of the underlying ERC20 implementation.In the case of OFT, address(this) and erc20 are the same contract.",
        "returns": {
          "_0": "The address of the OFT token."
        }
      },
      "totalSupply()": {
        "details": "See {IERC20-totalSupply}."
      },
      "transfer(address,uint256)": {
        "details": "See {IERC20-transfer}. Requirements: - `to` cannot be the zero address. - the caller must have a balance of at least `value`."
      },
      "transferFrom(address,address,uint256)": {
        "details": "See {IERC20-transferFrom}. Skips emitting an {Approval} event indicating an allowance update. This is not required by the ERC. See {xref-ERC20-_approve-address-address-uint256-bool-}[_approve]. NOTE: Does not update the allowance if the current allowance is the maximum `uint256`. Requirements: - `from` and `to` cannot be the zero address. - `from` must have a balance of at least `value`. - the caller must have allowance for ``from``'s tokens of at least `value`."
      },
      "transferOwnership(address)": {
        "details": "Transfers ownership of the contract to a new account (`newOwner`). Can only be called by the current owner."
      }
    },
    "version": 1
  },
  "userdoc": {
    "kind": "user",
    "methods": {
      "allowInitializePath((uint32,bytes32,uint64))": {
        "notice": "Checks if the path initialization is allowed based on the provided origin."
      },
      "approvalRequired()": {
        "notice": "Indicates whether the OFT contract requires approval of the 'token()' to send."
      },
      "combineOptions(uint32,uint16,bytes)": {
        "notice": "Combines options for a given endpoint and message type."
      },
      "endpoint()": {
        "notice": "Retrieves the LayerZero endpoint associated with the OApp."
      },
      "isComposeMsgSender((uint32,bytes32,uint64),bytes,address)": {
        "notice": "Indicates whether an address is an approved composeMsg sender to the Endpoint."
      },
      "nextNonce(uint32,bytes32)": {
        "notice": "Retrieves the next nonce for a given source endpoint and sender address."
      },
      "oAppVersion()": {
        "notice": "Retrieves the OApp version information."
      },
      "oftVersion()": {
        "notice": "Retrieves interfaceID and the version of the OFT."
      },
      "peers(uint32)": {
        "notice": "Retrieves the peer (OApp) associated with a corresponding endpoint."
      },
      "quoteOFT((uint32,bytes32,uint256,uint256,bytes,bytes,bytes))": {
        "notice": "Provides the fee breakdown and settings data for an OFT. Unused in the default implementation."
      },
      "quoteSend((uint32,bytes32,uint256,uint256,bytes,bytes,bytes),bool)": {
        "notice": "Provides a quote for the send() operation."
      },
      "setDelegate(address)": {
        "notice": "Sets the delegate address for the OApp."
      },
      "setPeer(uint32,bytes32)": {
        "notice": "Sets the peer address (OApp instance) for a corresponding endpoint."
      }
    },
    "version": 1
  },
  "storageLayout": {
    "storage": [
      {
        "astId": 3716,
        "contract": "contracts/Token.sol:MORTOKEN_REVISED",
        "label": "_owner",
        "offset": 0,
        "slot": "0",
        "type": "t_address"
      },
      {
        "astId": 1390,
        "contract": "contracts/Token.sol:MORTOKEN_REVISED",
        "label": "peers",
        "offset": 0,
        "slot": "1",
        "type": "t_mapping(t_uint32,t_bytes32)"
      },
      {
        "astId": 2166,
        "contract": "contracts/Token.sol:MORTOKEN_REVISED",
        "label": "preCrime",
        "offset": 0,
        "slot": "2",
        "type": "t_address"
      },
      {
        "astId": 2006,
        "contract": "contracts/Token.sol:MORTOKEN_REVISED",
        "label": "enforcedOptions",
        "offset": 0,
        "slot": "3",
        "type": "t_mapping(t_uint32,t_mapping(t_uint16,t_bytes_storage))"
      },
      {
        "astId": 2661,
        "contract": "contracts/Token.sol:MORTOKEN_REVISED",
        "label": "msgInspector",
        "offset": 0,
        "slot": "4",
        "type": "t_address"
      },
      {
        "astId": 4782,
        "contract": "contracts/Token.sol:MORTOKEN_REVISED",
        "label": "_balances",
        "offset": 0,
        "slot": "5",
        "type": "t_mapping(t_address,t_uint256)"
      },
      {
        "astId": 4788,
        "contract": "contracts/Token.sol:MORTOKEN_REVISED",
        "label": "_allowances",
        "offset": 0,
        "slot": "6",
        "type": "t_mapping(t_address,t_mapping(t_address,t_uint256))"
      },
      {
        "astId": 4790,
        "contract": "contracts/Token.sol:MORTOKEN_REVISED",
        "label": "_totalSupply",
        "offset": 0,
        "slot": "7",
        "type": "t_uint256"
      },
      {
        "astId": 4792,
        "contract": "contracts/Token.sol:MORTOKEN_REVISED",
        "label": "_name",
        "offset": 0,
        "slot": "8",
        "type": "t_string_storage"
      },
      {
        "astId": 4794,
        "contract": "contracts/Token.sol:MORTOKEN_REVISED",
        "label": "_symbol",
        "offset": 0,
        "slot": "9",
        "type": "t_string_storage"
      },
      {
        "astId": 8231,
        "contract": "contracts/Token.sol:MORTOKEN_REVISED",
        "label": "_nameFallback",
        "offset": 0,
        "slot": "10",
        "type": "t_string_storage"
      },
      {
        "astId": 8233,
        "contract": "contracts/Token.sol:MORTOKEN_REVISED",
        "label": "_versionFallback",
        "offset": 0,
        "slot": "11",
        "type": "t_string_storage"
      },
      {
        "astId": 6199,
        "contract": "contracts/Token.sol:MORTOKEN_REVISED",
        "label": "_nonces",
        "offset": 0,
        "slot": "12",
        "type": "t_mapping(t_address,t_uint256)"
      },
      {
        "astId": 3978,
        "contract": "contracts/Token.sol:MORTOKEN_REVISED",
        "label": "_delegatee",
        "offset": 0,
        "slot": "13",
        "type": "t_mapping(t_address,t_address)"
      },
      {
        "astId": 3983,
        "contract": "contracts/Token.sol:MORTOKEN_REVISED",
        "label": "_delegateCheckpoints",
        "offset": 0,
        "slot": "14",
        "type": "t_mapping(t_address,t_struct(Trace208)12559_storage)"
      },
      {
        "astId": 3986,
        "contract": "contracts/Token.sol:MORTOKEN_REVISED",
        "label": "_totalCheckpoints",
        "offset": 0,
        "slot": "15",
        "type": "t_struct(Trace208)12559_storage"
      },
      {
        "astId": 13907,
        "contract": "contracts/Token.sol:MORTOKEN_REVISED",
        "label": "isMinter",
        "offset": 0,
        "slot": "16",
        "type": "t_mapping(t_address,t_bool)"
      },
      {
        "astId": 13909,
        "contract": "contracts/Token.sol:MORTOKEN_REVISED",
        "label": "minter",
        "offset": 0,
        "slot": "17",
        "type": "t_address"
      }
    ],
    "types": {
      "t_address": {
        "encoding": "inplace",
        "label": "address",
        "numberOfBytes": "20"
      },
      "t_array(t_struct(Checkpoint208)12564_storage)dyn_storage": {
        "base": "t_struct(Checkpoint208)12564_storage",
        "encoding": "dynamic_array",
        "label": "struct Checkpoints.Checkpoint208[]",
        "numberOfBytes": "32"
      },
      "t_bool": {
        "encoding": "inplace",
        "label": "bool",
        "numberOfBytes": "1"
      },
      "t_bytes32": {
        "encoding": "inplace",
        "label": "bytes32",
        "numberOfBytes": "32"
      },
      "t_bytes_storage": {
        "encoding": "bytes",
        "label": "bytes",
        "numberOfBytes": "32"
      },
      "t_mapping(t_address,t_address)": {
        "encoding": "mapping",
        "key": "t_address",
        "label": "mapping(address => address)",
        "numberOfBytes": "32",
        "value": "t_address"
      },
      "t_mapping(t_address,t_bool)": {
        "encoding": "mapping",
        "key": "t_address",
        "label": "mapping(address => bool)",
        "numberOfBytes": "32",
        "value": "t_bool"
      },
      "t_mapping(t_address,t_mapping(t_address,t_uint256))": {
        "encoding": "mapping",
        "key": "t_address",
        "label": "mapping(address => mapping(address => uint256))",
        "numberOfBytes": "32",
        "value": "t_mapping(t_address,t_uint256)"
      },
      "t_mapping(t_address,t_struct(Trace208)12559_storage)": {
        "encoding": "mapping",
        "key": "t_address",
        "label": "mapping(address => struct Checkpoints.Trace208)",
        "numberOfBytes": "32",
        "value": "t_struct(Trace208)12559_storage"
      },
      "t_mapping(t_address,t_uint256)": {
        "encoding": "mapping",
        "key": "t_address",
        "label": "mapping(address => uint256)",
        "numberOfBytes": "32",
        "value": "t_uint256"
      },
      "t_mapping(t_uint16,t_bytes_storage)": {
        "encoding": "mapping",
        "key": "t_uint16",
        "label": "mapping(uint16 => bytes)",
        "numberOfBytes": "32",
        "value": "t_bytes_storage"
      },
      "t_mapping(t_uint32,t_bytes32)": {
        "encoding": "mapping",
        "key": "t_uint32",
        "label": "mapping(uint32 => bytes32)",
        "numberOfBytes": "32",
        "value": "t_bytes32"
      },
      "t_mapping(t_uint32,t_mapping(t_uint16,t_bytes_storage))": {
        "encoding": "mapping",
        "key": "t_uint32",
        "label": "mapping(uint32 => mapping(uint16 => bytes))",
        "numberOfBytes": "32",
        "value": "t_mapping(t_uint16,t_bytes_storage)"
      },
      "t_string_storage": {
        "encoding": "bytes",
        "label": "string",
        "numberOfBytes": "32"
      },
      "t_struct(Checkpoint208)12564_storage": {
        "encoding": "inplace",
        "label": "struct Checkpoints.Checkpoint208",
        "members": [
          {
            "astId": 12561,
            "contract": "contracts/Token.sol:MORTOKEN_REVISED",
            "label": "_key",
            "offset": 0,
            "slot": "0",
            "type": "t_uint48"
          },
          {
            "astId": 12563,
            "contract": "contracts/Token.sol:MORTOKEN_REVISED",
            "label": "_value",
            "offset": 6,
            "slot": "0",
            "type": "t_uint208"
          }
        ],
        "numberOfBytes": "32"
      },
      "t_struct(Trace208)12559_storage": {
        "encoding": "inplace",
        "label": "struct Checkpoints.Trace208",
        "members": [
          {
            "astId": 12558,
            "contract": "contracts/Token.sol:MORTOKEN_REVISED",
            "label": "_checkpoints",
            "offset": 0,
            "slot": "0",
            "type": "t_array(t_struct(Checkpoint208)12564_storage)dyn_storage"
          }
        ],
        "numberOfBytes": "32"
      },
      "t_uint16": {
        "encoding": "inplace",
        "label": "uint16",
        "numberOfBytes": "2"
      },
      "t_uint208": {
        "encoding": "inplace",
        "label": "uint208",
        "numberOfBytes": "26"
      },
      "t_uint256": {
        "encoding": "inplace",
        "label": "uint256",
        "numberOfBytes": "32"
      },
      "t_uint32": {
        "encoding": "inplace",
        "label": "uint32",
        "numberOfBytes": "4"
      },
      "t_uint48": {
        "encoding": "inplace",
        "label": "uint48",
        "numberOfBytes": "6"
      }
    }
  }
}